:020000040800F2
:10000000B8100020D5000008CD240008B92300084E
:1000100000000000000000000000000000000000E0
:10002000000000000000000000000000DF320008B7
:100030000000000000000000C12E0008E1320008AE
:100040000501000800000000050100080501000886
:100050000501000805010008050100080501000868
:100060000000000005010008050100080501000866
:100070000501000805010008050100080000000056
:100080000501000800000000000000000501000854
:100090000000000005010008050100080501000836
:1000A0000000000005010008000000000501000834
:1000B00005010008000000000000000039400008B1
:1000C0000348854600F038FA004800472D450008EF
:1000D000B81000200C4880F308880C480168090E0D
:1000E0000B4A914205D10B480B4901600B480C4962
:1000F00001600C4880470C480047FEE7FEE7FEE73A
:10010000FEE7FEE7FEE70000B81000200400000054
:100110001F00000018100240010000000000014014
:100120000000000069330008C100000830B50B462C
:10013000014600202022012409E00D46D5409D42C1
:1001400005D31D469540491B254695404019154647
:10015000521E002DF1DC30BD10B5202A04DB08460C
:10016000203AD040002110BD0B46D340D04020247F
:10017000A21A91400843194610BDD2B201E00270A4
:10018000401C491EFBD270470022F6E710B513460B
:100190000A4604461946FFF7F0FF204610BD421CF0
:1001A0000178401C0029FBD1801A704710B500224D
:1001B00000E0521C835C8C5CA34201D1002BF8D17F
:1001C000D8B2E1B2401A10BD03460A780270401C52
:1001D000491C002AF9D11846704700000FB400B539
:1001E0008DB009900B9010A900200091C0430A9097
:1001F00000200C9006480690064807906A4609A819
:100200000F9900F067F90DB008BC04B01847000062
:10021000F504000815050008FFB50027FF4383B06B
:1002200000205C6801909E681D46A9697F1C0498A7
:1002300088470090296A88470028F6D10098401C1A
:100240000CD0032040028443002E19DD600614D533
:1002500000982B2809D02D280FD103E00020C0439F
:1002600007B0F0BD012080020443A9697F1C0498F7
:100270008847761E0090002E02DD0098302803D0BB
:100280000598002825D035E0012040020443A969E3
:10029000761E7F1C049888470090002E03DD782886
:1002A00005D0582803D00598002810D022E00598E2
:1002B000002801D010281DD1012040028443A969E3
:1002C000761E7F1C049888470090102002E00820CA
:1002D00000E00A2005900DE0012149020C43059A37
:1002E0000199761E514308180190A9697F1C049852
:1002F00088470090002E05DD0599009800F0D5F89C
:100300000028E9DAE96904988847A00502D40120A9
:10031000C043A5E7E00722D1600611D5600501982A
:1003200000D5404229680A1D2A600968220501D5C6
:10033000087014E0220701D5088010E008600EE084
:100340002868011D29600068210502D50199017006
:1003500005E02107019901D5018000E001603846E0
:100360007EE7FFB5002083B000905068019091694E
:100370001446002697680498884705460C99069805
:10038000084305D009E0A169761C04988847054612
:10039000216A284688470028F5D1681C03D00198B7
:1003A000C00704D017E00020C04307B0F0BD2068AC
:1003B000011D2160006800900DE00198C00704D184
:1003C000009805700098401C0090A169761C7F1E63
:1003D000049888470546002F1CDD681C1AD0069833
:1003E00000280FD0E817C00E401941118A00069965
:1003F0004009511840012A1A096801209040014221
:10040000DBD107E00C980028D7D1216A284688471D
:100410000028D2D0E169049888470C98002807D1B9
:10042000002E05DD0198C00702D10098002101705F
:10043000A068B84204DD0C98002804D0002F02D038
:100440000120C043B1E73046AFE7F0B51FB4064620
:10045000002082B005464024019100901BE00199E4
:1004600022460F463046FFF777FE049A059B801A16
:10047000994110D310461946224600F06FF8361AFB
:100480008F410197224601200021009F00F066F86D
:1004900038184D4100902046641E0028DFDC019B87
:1004A00000982946324607B0F0BD3A2800D23038CD
:1004B000202302469A43412A01D310463738884206
:1004C00001D30020C04370470268137851180160BF
:1004D0001846704710B5D160044951610449116252
:1004E00000211161114600F051F810BDC904000847
:1004F0007D0500084268002A08D001680B78491C75
:10050000002B03D0521E06C0184670470121C1605F
:10051000881E70474268002A0BD0C3680168002B10
:1005200007D183688B4204D0491E521C06C00020AC
:1005300070470020C0437047064C0125064E05E079
:10054000E36807CC2B430C3C98471034B442F7D3F4
:10055000FFF7BAFD444800086448000810B5202A97
:1005600004DB0146203A9140002010BD9140202339
:100570009C1A0346E3401943904010BD10B50F216B
:10058000C0B2490200F09EF910BD0000F3B58DB075
:1005900000200A9001200B90002608460C300C46E3
:1005A00009906269012109989047051E2ED0252DDA
:1005B0002DD0216A8847002818D062690121099846
:1005C0009047216A88470028F7D1411E626909983F
:1005D000904700E0761CA1690D988847216A8847FA
:1005E0000028F7D1E1690D988847DAE7A1690D98ED
:1005F00088470746A84201D1761CD2E7E1690D98E9
:1006000088477F1C02D10A98002877D049E100274B
:1006100062693D463946099890472A280CD162699B
:10062000012109989047012506E00A214F433F1810
:10063000303FEBD4102005436269012109989047AF
:10064000014630390A2903D29B498F42DEDCECE7B0
:10065000E90600D4994F6C280AD04C2810D068289D
:1006600024D06A282ED074280CD07A280AD00DE025
:1006700062690121099890476C2823D004211CE06D
:10068000202005436269012109989047A7606560B1
:1006900065284FD026DC582839D01ADC452849D0A7
:1006A00012DC252834D04128B0D143E06269012111
:1006B00009989047682802D008210D43E6E70120F9
:1006C000C002DEE70220DCE7462833D047282CD1E1
:1006D00030E05B2870D061282CD063286CD064286F
:1006E00023D161E06F284FD009DC662822D067282B
:1006F00020D0692826D06E2817D12EE0CDE07028B2
:100700004DD073286FD075284ED078280DD154E085
:10071000A1690D9888470546252800D16CE7E16955
:100720000D9888476D1C00D16DE7BAE00A224CE0B5
:100730000A2252E0012023466A46C0430D99C04672
:10074000C046A3E02846402108436060A80723462E
:1007500001D5002239E000223FE0E80700D020E781
:100760002068011D21600068290501D5067018E781
:10077000290701D5068014E7A90703D5F1170660FC
:1007800041600EE706600CE72846402108436060A0
:10079000A807234601D5082217E008221DE0484992
:1007A00028460840606016E0284640210843606003
:1007B000A8072346BCD5B9E715E0284640210843E1
:1007C0006060A80707D5234610220120C0430D9979
:1007D000C046C0465AE0234610220120C0430D996E
:1007E000FFF71AFD52E000210C910B46009163289F
:1007F00002D05B2807D043E0E80601D40120A060C6
:10080000012000903CE062690121099890475E2830
:1008100005D101200C900146626909989047216931
:10082000002906D10B4601AA8F00491CD351082983
:10083000FADB002835D0216900290ED1C117C90E75
:1008400009184A11930001AA9A1849094901411A45
:1008500001201368884003431360626901210998ED
:1008600090475D28E5D10C98002808D0002001AB06
:1008700081005A58401CD2435A500828F8DB01AB7B
:1008800001202246C0430D99FFF76BFD00280ADACC
:10089000401C06D10B98002803D00020C0430FB0A5
:1008A000F0BD0A98FBE7E90702D10A99491C0A91B1
:1008B000361800200B9074E6CCCCCC0CFFFFFF7FE9
:1008C000F1F7FFFF7F2801D9002207E0054B42081E
:1008D0009A5CC00700D112091207120F0120904044
:1008E000084070479E47000870B58C180578401C7A
:1008F0006B075B0F01D10378401C2A1106D10278E7
:10090000401C03E006780E70401C491C5B1EF9D1A8
:100910002B0705D40023521E0DD40B70491CFAE797
:100920000378401CCB1A921C03E01D780D70491C03
:100930005B1C521EF9D5A142D8D3002070BD002007
:10094000704700207047000010B500220549064896
:1009500002F025FE03490448403902F016FE00204B
:1009600010BD0000780900207801002010B5014674
:10097000094802F00AFE084802F0E1FD074908486C
:10098000FFF722FC40210548FFF7FEFB0549012047
:100990000870002010BD00007801002038090020F8
:1009A000F8080020180100200A4610B50B49896993
:1009B000FF31FF3102314969002901D0012010BD0A
:1009C0000146074802F0EBFD09200221C00600F0B5
:1009D0002AF9034802F028FE10BD00007803002029
:1009E0007801002031B500F029F9009C0546601C13
:1009F00000D0641C00F022F9401BA042FAD338BD9D
:100A0000F0B5002358E001229A4014460A4052D023
:100A100006685F000325BD40AE43AC460660DD08B6
:100A2000AD002D182E6AAE465D07EF0E0F25BD40B6
:100A3000AE4375462E6286686546AE43866045685D
:100A4000A5434560C4686546AC43C4609D081C4C22
:100A5000AD002D19AF689C07260F0F24B440A446A3
:100A60003C400927FF06B84201D100270FE0154F8F
:100A7000B84201D101270AE0134FB84201D1022741
:100A800005E0124FB84201D1032700E00527B74027
:100A9000A74210D1AE686446A643AE600C4C2568F0
:100AA00095432560656895436560A5689543A56095
:100AB000E5689543E5605B1C0A46DA40A3D1F0BDCA
:100AC000000001400004004800080048000C0048F5
:100AD00000040140F8B500238DE001249C40A446A9
:100AE00022407DD04C68022C01D0122C0CD1DC08A5
:100AF000A40027183C6A5D07ED0E0F26AE40B443F4
:100B00000E69AE4026433E6205685E000324B44091
:100B10000F79A543BF07BF0FB7402F4307604D684C
:100B2000012D05D0022D03D0112D01D0122D0ED193
:100B30008568CF68A543B7402F43876047686546FF
:100B4000AF430D79ED06ED0F9D403D434560C5680F
:100B5000A5438C68B4402C43C4604C68E40049D57C
:100B6000284CA56901263543A561A4699D08344038
:100B70000094254CAD002F19BC689D072E0F0F2542
:100B8000B540AC430925ED06A84201D100250FE090
:100B90001E4DA84201D101250AE01D4DA84201D1F8
:100BA000022505E01B4DA84201D1032500E00525E3
:100BB000B5402543BD60184C25684E689543F60343
:100BC00000D51543256065684E689543B60300D58A
:100BD00015436560A5684E689543F60202D500E0AE
:100BE00008E01543A560E5684E689543B60200D558
:100BF0001543E5605B1C0A681446DC4000D06CE7D6
:100C0000F8BD000000100240000001400004004850
:100C100000080048000C004800040140006908403A
:100C200000D00120704742694A4042617047002A63
:100C300001D08161704781627047000001480068FF
:100C4000704700007401002002480168491C0160DF
:100C5000704700007401002010B50648016810229A
:100C600011430160002000F007F800F017F80020A1
:100C700010BD00000020024010B5044600F0FAFE4E
:100C80007D21C900FFF752FA01F07AFB00222146CC
:100C9000501E00F02FF8002010BD000008B50E48CF
:100CA0008169012211438161806910400022009016
:100CB0001146501F00F01EF800221146901E00F051
:100CC00019F800221146501E00F014F8034801687C
:100CD00010221143016008BD0010024000000140D5
:100CE000C106C90E01208840014908607047000014
:100CF00000E100E010B501F0EBFB10BD10B50C06F3
:100D000006D54906490E1C2461430818283004E022
:100D10001C2461430818FF30093099B2002A06D01C
:100D200001228272C180190C0181002010BD0022B5
:100D300082728180F9E71C224A43121810B5FF30F5
:100D4000FF300230926BC06902F017FE10BD1C220A
:100D50004A43121810B5FF30FF32FF300132023023
:100D60009269C06902F064FE10BD0000F0B54A0649
:100D7000520E13461C256A43CC091218002C01D0D0
:100D8000283201E0FF32093204461370C909FF34EA
:100D90005170E134217A01293DD001212172957AE7
:100DA000494B002D4949557837D0002D05681678F4
:100DB000AC465BD0B600AD5B6F0404D5444F0D402C
:100DC0003D436746BD5305681678AC46B600AD5B3B
:100DD0006F0605D53C4F0D4040373D436746BD5338
:100DE00015780668AF00F55B0D4039490D43F553A2
:100DF000364F117830373D40066889001D437552E3
:100E00001178334A00688900F13A15401D43455274
:100E100000202072F0BD0220F0BD002D056816787C
:100E2000AC4610D0B600AD5B6F0605D50D40264927
:100E300040310D4361468D5305681078234A810087
:100E4000685A30320EE0B600AD5B6F0404D50D4039
:100E50001F490D4361468D53056810781C4A810077
:100E6000685AF13A104018436852D1E7B600AD5BBA
:100E70006F0404D5164F0D403D436746BD530568CA
:100E80001678AC46B600AD5B6F0605D50E4F0D402B
:100E900040373D436746BD5315780768AE00BD5BDC
:100EA0000D40094940310D43BD53094F1678F13FBC
:100EB0003D400168B6001D438D531178034A8900F7
:100EC00000683032A1E70000808000008F8F0000B2
:100ED00080C00000F0B54B06CA095B0E002A04D0A2
:100EE0001C225A431218283204E01C224A431218CA
:100EF000FF3209320024947013700346C909FF338E
:100F00005170E133197A01291AD0012119725178EF
:100F10001A4C00291178066814D08D00715B4F06B9
:100F200003D52140164C21437153117800688A0083
:100F3000124C815A3034214010246140202414E0A6
:100F40000220F0BD8D00715B4F0403D521400D4C94
:100F500021437153117800688A000A4C815AF13C90
:100F6000214001242403614064006140044C403C62
:100F70002143815200201872F0BD00008F8F0000C5
:100F8000C080000080C000004906490E1C22514369
:100F90000818FF300130008C80B27047F0B54D0664
:100FA0006D0E2E461C246543CF092C18002F01D04E
:100FB000283401E0FF3409342670C9096170014604
:100FC000FF31E260E131E3708C46097A01290DD0EE
:100FD000012261460A72E2789349002A08D0012A68
:100FE00020D0022A0DD0032A25D111E00220F0BD25
:100FF000237802689B00D55A0D40FF35FF35023536
:1010000004E0237802689B00D55A0D40D55212E0C7
:101010002278036892009D5A0D4003214902691805
:10102000995208E0237802689B00D55A0D400121AF
:1010300089026918D15226780768B5007B5B7B4925
:101040007B4A0B40134333437B53A57A002D53D087
:101050002578784E0B400768AD0033437B53E38817
:1010600050265D0803686D00F65AF6182378DF00F5
:1010700001239B02FB18F552238950265D08036863
:101080006D00F65AF6182378DF005311FB18F5525D
:1010900063780768002B237875D09D007B5B5E0426
:1010A00003D5654E0B4033437B53237807689D007F
:1010B0007B5B5E0604D55E4E0B40403633437B536C
:1010C000237805689E00AB5B0B405B490B43AB5339
:1010D000564E2178303633400568890013436B52F1
:1010E0002178554C00688900F13C2340134343525A
:1010F000002061460872F0BD6378002BA3881FD0E2
:101100005D0803685026F65A6D00F6182378DF0054
:1011100001239B02FB18F552237807689D007B5B37
:101120005E0604D50B40424940310B437B530168B6
:1011300020783E4C8300C85A30342040202440E0C0
:101140005D0803685026F65A6D00F6182378DF0014
:101150003A4BFB18F55203685025ED5A374EEB1801
:101160002578B61CED00AD195E19E3683E2B0BD94E
:10117000DD022D0CDB0601D16D1EADB2AB020125E7
:10118000ED032B4307E020E0DD032D0CDB0701D04E
:101190006D1CADB2AB023380237807689D007B5B8A
:1011A0005E0403D50B4024490B437B530168207830
:1011B000214C8300C85AF13C2040012424036040A4
:1011C000640060401043C85292E79D007B5B5E0460
:1011D00003D5194E0B4033437B53237807689D009A
:1011E0007B5B5E0604D5124E0B40403633437B5387
:1011F000237805689E00AB5B0B400D4940310B43E3
:10120000AB530D4E2178F13E334001263603734037
:10121000760073400568890013436B522178034CB4
:1012200089000068303460E78F8900008F8F0000EC
:10123000808000008081000080C000000404000065
:10124000F0B54906490E1C244C432418FF340934D8
:10125000636122610022A26103466270FF33217044
:10126000E133197A012908D0012119726569E16811
:101270008D4204D96D1A656103E00220F0BD294654
:101280006261A57A002D05D06578002D19D0012D59
:1012900037D059E005685026765B76192578EF003F
:1012A000324D7D1976193E293ED9CD022D0CC90645
:1012B00037D0A9020125ED03294300E0A9023180BE
:1012C00042E005685026765B76192578EF00274DB9
:1012D0002D1F7D1976193E290AD9CD022D0CCF0676
:1012E00001D16D1EADB2AD020127FF033D4306E003
:1012F000CD032D0CCF0701D06D1CADB2AD023580F2
:1013000009E005685026765B76192578EF00174DC1
:101310002D1F7D1971536578002DBBD0012D0AD08A
:1013200012E06D1EADB2C4E7CD032D0CC907C5D0C8
:101330006D1CADB2C2E705685026765B761925783C
:10134000EF000A4D7D197153217800688C00015B14
:10135000074D294001252D0369406D006940054D69
:10136000294301531A720020F0BD0000060400005A
:101370008FBF000080800000F0B50246FF32E132EE
:10138000137A012B0BD001244F06CB097F0E147268
:10139000002B06D01C237B431B18283306E00220B9
:1013A000F0BD1C234B431B18FF3309339C701F7087
:1013B000CE095E70012424031025114B002F0BD0A1
:1013C0004906C90D002E10D004680E4E605A3040F8
:1013D00068401843605210E001680B4E08883040A6
:1013E000604068401843088007E00568064E685A68
:1013F000303E304060401843685200201072F0BD0B
:1014000080800000BF8F0000BFBF0000F0B506461F
:101410004806400E1C2141438D19EB630021AA634D
:1014200029640121283537466970FF372870E13774
:10143000387A012806D03972EC686869A04203D96D
:10144000001B03E00220F0BD044600206861A87A7A
:1014500000280CD0297830688A00825C52066A78AD
:101460003AD54B4B002A13D0012A2DD032E0A3B23B
:10147000AA882969306801F0FEF930685021095ABC
:1014800009182878C2004248001F10180C526CE05E
:101490005022125AC9001018C91841183E2C0AD9F6
:1014A000E002000CE20601D1401E80B2800201225F
:1014B000D203104306E0E003000CE20701D0401C19
:1014C00080B28002088005E05022125AC90010182C
:1014D000C91844522A892BE0002A02D0012A1ED0C2
:1014E00025E05022125AC90012182948001F081876
:1014F00011183E2C0AD9E002000CE20601D1401E70
:1015000080B280020122D203104306E0E003000C07
:10151000E20701D0401C80B28002088007E0502220
:10152000125A1018CA001A49091F51184452EA8861
:10153000A3B22969306801F09EF96978154800293D
:1015400002D0012909D010E0297832688900535A65
:10155000034011480343535207E029783368890058
:101560005A5A02400D4802435A5228783168820084
:10157000084B885A303318401023584020235840D5
:10158000054B403B1843885200203872F0BD0000E4
:10159000060400008F8F0000C080000080C00000A3
:1015A00070B50446006840308088C00B02D02046E9
:1015B00000F0B0FF20684030818849050AD5818855
:1015C000334A11408180204600F0DAF8002120469D
:1015D00000F000F9206840308188490403D58188F3
:1015E0002C4A11408180206840308188890403D5CD
:1015F0008188294A114081802068403081880425F3
:10160000C904002910DA0188A9430180BD2021689E
:10161000000240310880204600F0BEF820684030CB
:1016200081881E4A114081802068403081880905E8
:1016300017D581881A4A114081802068403001887E
:10164000082211430180206840300188294301802D
:10165000206840308088C043C00402D5204600F096
:10166000E3F8206840308188890506D581880D4AD5
:1016700011408180204600F0A5F820684030818824
:10168000C90503D58188084A1140818070BD0000DA
:10169000FFFB0000FFBF0000FFDF0000FFEF0000C6
:1016A000FFF70000FFFD0000FFFE0000F8B5002777
:1016B0000446002807D02646FF36E136707A00251A
:1016C000002802D005E00120F8BD3572204600F068
:1016D0003BF80320707201210BE01C2078430219B3
:1016E0001046203041720772C572556395637F1CA6
:1016F000D5636068B842F0D800200BE01C2242435A
:101700001219FF32013255721072D572556195610E
:10171000401CD56162688242F0D820684030018068
:101720002068403005802068403085802068403047
:101730000582BF20226800024032108020342571CB
:1017400071720020F8BD000008B500680A4988429F
:1017500010D10A48C2690121C9050A43C261C069A2
:1017600000220840009011461F20FFF7C3FA1F20F7
:10177000FFF7B6FA08BD0000005C00400010024010
:1017800010B5C41DFF34FA340121E06902F055FAA6
:10179000E06902F01AFA10BD10B50446806900280D
:1017A00006D00748016906229143016101F09EFDC0
:1017B000FF34FF340234E06902F02AFA10BD000061
:1017C00000ED00E0FF3010B5FF300230C06902F0DC
:1017D00025FA10BD0246FF32E132137A012B08D000
:1017E00001231372002906D02030017100201072ED
:1017F0007047022070470068802140308181F5E702
:1018000010B5872189000A580146FF31ED31104695
:1018100002F029FA10BD00684030018B0122D2038A
:10182000114301830020704710B50446FF30FF309C
:101830000230C06902F06CFAA069002804D00348A5
:10184000016906221143016110BD000000ED00E0B6
:10185000F8B505460068394CC00352D5E06900264A
:10186000C00007D4E16920040143E161E16901405E
:101870000126009132480168C90510D4016882151B
:1018800011430160FFF7DAF9074604E0FFF7D6F9E4
:10189000C01B642824D82A480068C005F6D5206AF1
:1018A00003273F02384020D06968394081421CD06C
:1018B000206A226AB843012109040A432262226A8B
:1018C0008A4322622062C0070FD0FFF7B7F9009069
:1018D00008E0FFF7B3F90099411A1A48814201D98B
:1018E0000320F8BD206A8007F3D5206A6968B843F1
:1018F00008432062002E04D0E169012000078143E3
:10190000E1612878C00705D0206BA96880088000B5
:10191000084320632878800605D5206B1021884372
:10192000E968084320632868800305D5206B80217F
:1019300088432969084320630020F8BD0010024055
:101940000070004088130000F8B5054644480E4674
:101950000068C007C00FB0420AD241480168490878
:101960004900314301600068C007C00FB0425CD13C
:1019700028783C4C800705D56068F0218843A96829
:10198000084360602878C0073FD06868012813D0FA
:101990002168022813D08907002946DA616889087E
:1019A000890001436160FFF749F969680746012929
:1019B0000DD0022917D024E021688903ECE78901C2
:1019C000EAE7FFF73BF9C11B2748814217D8606857
:1019D0000007800F0128F4D117E0FFF72FF9C11B92
:1019E000214881420BD860680007800F0228F4D19B
:1019F0000BE0FFF723F9C11B1B48814201D90320EB
:101A0000F8BD60680007800FF3D115480168C90769
:101A1000C90FB1420BD9016849084900314301603F
:101A20000068C007C00FB04201D00120F8BD28787F
:101A3000400706D56068072109028843E968084322
:101A4000606000F01DF86168084A0906090F515CE2
:101A5000C840074908600020FFF70EF90020F8BDD4
:101A60000020024000100240881300008E4700084A
:101A700070010020014800687047000070010020DC
:101A800030B514A30FCB89B06C460FC415A30FCB90
:101A90000FC418494A680C20144604401648042C08
:101AA00003D04310082C02D0184609B030BD940270
:101AB000240F6D462C5DC96A04AD0907090FD203D6
:101AC000695C920F022A00D01846FEF72FFB604394
:101AD000EBE7000002030405060708090A0B0C0DDA
:101AE0000E0F10100102030405060708090A0B0C6B
:101AF0000D0E0F10001002400024F400FEB5044645
:101B00000078D24DC00749D068680007800F0128CF
:101B100020D068680007800F022804D16868C003DD
:101B2000800F022816D0012062680004012A18D014
:101B30008100002A01D0052A17D02A6882432A6032
:101B4000286888432860606800281BD0FFF776F873
:101B5000064613E02868800320D56068002876D008
:101B60001CE0296801432960EDE72A680A432A60DE
:101B7000F7E7FFF763F8801B642869D828688003BB
:101B8000F7D50BE0FFF75AF8064604E0FFF756F8E2
:101B9000801B6428F1D828688003F7D420780126B8
:101BA000800700283DDA68680007800F13D0686856
:101BB0000007800F022804D16868C003800F012845
:101BC00009D0E068002828681CD030432860FFF75F
:101BD00035F807460BE0286880070BD5E068012838
:101BE00035D107E0FFF72AF8C01B0228C5D82868BE
:101BF0008007F7D52868F82188432169C900084380
:101C000028600EE0400840002860FFF717F80746FC
:101C100004E0FFF713F8C01B0228AED8286880073D
:101C2000F7D42078000723D5E0690028686A10D02F
:101C300030436862FFF702F8074604E0FEF7FEFF54
:101C4000C01B022899D8686A8007F7D510E0FAE02F
:101C5000A4E0400840006862FEF7F0FF074604E099
:101C6000FEF7ECFFC01B022887D8686A8007F7D40C
:101C7000207804274007002860DA00200190E869F6
:101C8000C00008D4E969B8060143E961E969014087
:101C90000120009101906E480168C90511D40168C6
:101CA000821511430160FEF7C9FF009005E0FEF7C1
:101CB000C5FF0099401A642870D865480068C005BF
:101CC000F5D5A06801280AD0002801D0052810D039
:101CD000286A400840002862286AB84301E0286A60
:101CE00030432862A068002812D0FEF7A7FF0090BA
:101CF0000AE0286A38432862F1E7FEF79FFF00995F
:101D0000411A5448814249D8286A8007F5D50DE028
:101D1000FEF794FF009006E0FEF790FF0099411A4D
:101D20004C4881423AD8286A8007F5D401980028A7
:101D300004D0E969012000078143E9612078C006E9
:101D400035D5606901280CD0401D686B23D038431D
:101D50006863686B400840006863FEF76FFF0646E3
:101D600022E0686B38436863686B30436863FEF752
:101D700065FF064604E0FEF761FF801B02285BD882
:101D8000686B8007F7D5686BF8218843A169C900A3
:101D9000084368630BE0B8436863F4E74CE0FEF780
:101DA0004DFF801B022847D8686B8007F7D4206A54
:101DB000002846D069680907890F022943D0012607
:101DC00036060228286805D0B0432860FEF736FFA3
:101DD000044633E0B0432860FEF730FF074604E0D6
:101DE000FEF72CFFC01B022826D828688001F7D4F4
:101DF000E86AE16A000900010843E862616AA06AD2
:101E0000084369687B22D2039143084368602868CD
:101E100030432860FEF712FF044604E0FEF70EFF91
:101E2000001B022808D828688001F7D509E0FEF7D2
:101E300005FF001B022801D90320FEBD2868800190
:101E4000F5D40020FEBD0120FEBD000000100240C0
:101E5000007000408813000070B5040012D0022109
:101E60002046403005464177206801684022914372
:101E70000160204600F064F8002121666977297727
:101E8000084670BD012070BDF8B5040007D00026DB
:101E900025464035A662687F002802D005E0012073
:101EA000F8BD2E77204600F05FF802236B7720689C
:101EB00001684022914301600721E06809028842DD
:101EC00001D9002201E0012212030F273F02B8428C
:101ED00002D0884200D0A662276B002F05D188422D
:101EE00001D9236301E001202063A1686068636970
:101EF00008432169194308430123A1695B02194082
:101F00000843E1690843216A0843A16A084321683C
:101F10000860616B606AA36908431B0C0427E168D1
:101F20003B40194308432168104348602068C16959
:101F30007A029143C1612666012068770020F8BDCE
:101F400010B500680649884209D1064881698214A3
:101F5000914381610920E021C006FEF751FD10BDCB
:101F6000003001400010024000B500680D4987B004
:101F7000884215D10C48826981140A4382618069C4
:101F800008400590E02000900220019000210320ED
:101F900003900291049109206946C006FEF79AFD5C
:101FA00007B000BD0030014000100240FFB50646FA
:101FB00004464036307F002781B00D46012809D005
:101FC00001203077FEF73AFE0090707F012804D0A0
:101FD00002279DE0022005B0F0BD002D72D00398CD
:101FE00000286FD00320707700202066A563039936
:101FF000A1870399E1872064B080F0802065E064C8
:102000000121A068C903884205D120680168012226
:1020100092031143016020680168490603D40168F6
:102020004022114301600720E1680002814260689C
:1020300023D9002802D0E08F01281AD121682888EE
:10204000C86005E020688168890706D52988C160D5
:10205000E08F401EE087AD1C0BE0049800283ED0C6
:10206000401C06D0FEF7EAFD0099411A049881420F
:1020700035D2E08F0028E5D136E0002802D0E08F8D
:1020800001282ED1E08F012803D921682888C86053
:102090000CE02168287808730FE0206881688907C0
:1020A00011D5E18F012906D92988C160E08F801EF2
:1020B000E087AD1C15E029780173E08F401EE087B2
:1020C0006D1C0EE023E00498002808D0401C08D0C6
:1020D000FEF7B4FD0099411A0498814201D3032709
:1020E00016E0E08F0028D8D12046009A049900F02D
:1020F000E8FE002801D020202066A068002803D137
:102100002068C16880680090206E002800D00127F8
:10211000012070770020307738465CE7FFB5044631
:1021200083B00120254640350090287F00270E46C9
:1021300001280FD001202877FEF780FD0190687FED
:10214000616801280DD0CA1FFD3A08D1A168002995
:1021500005D102E0022007B0F0BD042801D002271B
:10216000FAE0002E7CD005980028FBD006980028C5
:10217000F8D0687F042801D0052068770020206609
:10218000059921640699E9800699A980A6630699B4
:10219000E1870699A187E06420650723E1681B02B7
:1021A000994202D8E888012806D9206842680121AE
:1021B00009038A43426005E0206841680122120356
:1021C0001143416020680168490603D40168402238
:1021D00011430160E1686068994242D9002802D049
:1021E000E08F012835D121683088C860E08F401E1B
:1021F000E087B61C2DE0009800280ED0E08F002864
:102200000BD020688168890707D53188C160E08FCD
:10221000401EE0870020B61C0090E88800280ED001
:1022200020688168C9070AD0C068059908800598A8
:10223000801C0590E888401EE880012000900C98E2
:10224000401C06D0FEF7FAFC0199411A0C98814215
:102250006DD2E08F0028CED1E8880028CBD16EE087
:1022600079E0002802D0E08F012862D1E08F0128B8
:1022700007D921683088C860E08F801EE087B61CCF
:1022800057E0216830780873E08F401EE087761CA5
:102290004FE00098002818D0E08F002815D0206863
:1022A0008168890711D5E18F012906D93188C1607C
:1022B000E08F801EE087B61C05E031780173E08F67
:1022C000401EE087761C00200090E888002824D07B
:1022D00020688168C90720D0E988012912D9C0681F
:1022E000059908800598801C0590E888801EE88084
:1022F000E88801280FD820684168012212031143A1
:10230000416008E0017B059801700598401C05902C
:10231000E888401EE880012000900C98401C08D0FE
:10232000FEF78CFC0199401A0C99884201D30327CF
:1023300012E0E08F0028ACD1E8880028A9D120461F
:10234000019A0C9900F0BDFD002801D020202066E4
:10235000206E002800D00127012068770020287710
:102360003846F8E6042204490428086902D090435C
:10237000086170471043FBE700E000E07047000091
:10238000094910B5401E884201D9012010BD074CF3
:1023900060610321081F00F09BF80020A061072066
:1023A0002061002010BD0000FFFFFF0000E000E002
:1023B00010B5FFF7E3FF10BDFEE70000F0B52148C0
:1023C00087B04269012189050A43426142690A4096
:1023D0000592426949110A43426142690A400592E5
:1023E000426949000A434261406909260840F606ED
:1023F0000590002216213046FEF719FC124F0022EC
:1024000002213846FEF713FC0920002400900194B5
:10241000694602943046FEF75DFB162001250090C8
:1024200002946946019503943046FEF753FB02205F
:10243000009002946946019503943846FEF74AFBE2
:1024400007B0F0BD001002400004004810B511486C
:102450000F490160FF210531416007221202C2606D
:1024600000218160022202610122426152028261E6
:10247000016208224162C261816207220163C26275
:102480004163FFF701FD002800D0FEE710BD00000A
:10249000003001404408002010B5002207490848D8
:1024A00001F02CFA0749064801F061FC064904488E
:1024B00001F061F8024801F0ABFC10BD3C010020C6
:1024C00078010020DC0000202C0100207047000073
:1024D0008307FF22DB0E9A408907090E99400028E6
:1024E0000BDA0007000F0838830808489B0018180B
:1024F000C36993430B43C3617047830804489B003F
:102500001B181868904308431860704700ED00E0FE
:1025100000E400E0F0B585B00446002069468880FC
:102520002646203678E19A8917073F0F26D0B90052
:102530000291425A9A80998809047DD5BE490A4081
:102540000299425238461C2148430519FF35093586
:10255000A87A0028206870D029788A00825A52040C
:102560006CD55022125ACB00B44912185918515A3E
:102570008905890D00917DD0EA88BDE09A89D2064F
:1025800027D40188AE4A2546114001802068502199
:10259000095A283508182978CA00A8495118405AFC
:1025A0008005800D2064A16B0818A06300212046DF
:1025B000FEF7C1FB30790028B4D068690028B1D19A
:1025C00030798021084321684031888100203071B2
:1025D00022E12546FF35028809359A809B881B0534
:1025E00019D5098A09182878C2009448001D1018C6
:1025F000085A294683059B0DAB61AA88E4312068FF
:1026000000F024F920688C4A01881140018020469E
:10261000FFF7F6F800E1694689880904D8D58649AC
:10262000864F0A40028020685021095A3F1D091830
:102630002878C000C01902E085E03DE04FE0085A6C
:1026400083059B0DAB6108D0AA882969206800F03A
:10265000FDF8A96928694018286100212046FEF785
:1026600076FB206801464030008A4018C119E868AE
:102670003E2800E044E00AD9C202120CC00601D193
:10268000521E92B290020122D203104306E0C2030E
:10269000120CC00701D0521C92B29002088021682F
:1026A000684A0888104001221203504052005040EE
:1026B000654A10430880AFE05021095A0A1829786A
:1026C000CB005E49091D5918515A8905890D0091A1
:1026D00021D0AA882969009B00F0B8F81BE050229D
:1026E000CB00125A55491218091D5918515A89051B
:1026F000890D009104D02A892969009B00F0A6F871
:10270000297820688A004E4B815A803319404E4BFD
:10271000403319438152A96900980818A8612969B2
:1027200000980A182A616B69002B03D0E9680098A9
:10273000814204D929782046FEF709FB03E0297875
:102740002046FEF77DFD68468088000664D51C2083
:102750004743206802993A4A415A3D191140029A6A
:1027600028358152A87A0028206811D029788A005B
:10277000825C52061ED55022125AC90012182F48E8
:102780000818105A83059B0DAB6124D0EA881EE01F
:102790005021095A09182878C20028481018085AE8
:1027A00083059B0DAB6121D0AA882969206800F0C0
:1027B00062F81BE05022125AC90012181F48001D6F
:1027C0000818105A83059B0DAB6104D02A8929692A
:1027D000206800F050F8287822688000184B115AC1
:1027E00080331940174BF13319431152206850219F
:1027F000095A09182878C20010481018085A80058C
:10280000800DA86129690A182A616B692978002B53
:1028100020460DD0FEF7FAFD2068014640318A8837
:102820006B469A81120400D57DE6002005B0F0BD0C
:10283000FEF781FAF0E700008F0F000002040000AD
:102840000F8F00008FBF000080800000101810B5AF
:10285000012292025C088018002C07D002880A70BE
:10286000120A4A70801C891C641EF7D1DA0701D055
:102870000078087010BD101801225B1C920210B580
:102880005B088018002B08D04A780C78120222438B
:102890000280801C891C5B1EF6D110BDF0B58FB084
:1028A000FE48FDF77CFCFE4D0B284BD0FB48FDF7A6
:1028B00076FC0B287ED3F9482B46DC380D3300908C
:1028C0005A1FF8A1DC30FDF789FC2846F949083089
:1028D000FDF76CFCF14C283C21460F310B91491E51
:1028E0004F1E0A91891E0991491E0891491E0791A0
:1028F000491E0691491E0591E11D0491611D039138
:10290000211D0291E11C0191A11CA61D009100282E
:102910007AD0E8492846491D0830FDF747FC0028D1
:1029200073D0E44928460A310830FDF73FFC0028FF
:102930006CD0E04928460F310830FDF737FC0028FD
:102940006FD0FFE1D64BDCA10D335A1FD348FDF702
:1029500045FCD348D7490830FDF728FC002818D09B
:10296000D449CF48491D0830FDF720FC002877D016
:10297000D049CB480A310830FDF718FC002870D048
:10298000CC49C7480F310830FDF710FC002869D04A
:10299000D8E1C849C24869390D30FDF707FC002865
:1029A00035D0C449BE4864390D30FDF7FFFB00281F
:1029B00038D000E06BE2BF49B9485F390D30FDF710
:1029C000F5FB002838D0BB49B5485A390D30FDF722
:1029D000EDFB00283AD0B749B14850390D30FDF72A
:1029E000E5FB00283FD0B349AD4855390D30FDF720
:1029F000DDFB00283ED0AF49A94837390D30FDF73F
:102A0000D5FB002840D049E024E118E2FCE000F0CA
:102A100055FBA8481430FDF7C2FB81B2A54814301D
:102A20008EE104E100F02EFBA2482430FDF7B7FB55
:102A300081B2A048243083E100F082FB9D4834300D
:102A4000FDF7ADFB81B29B48343079E100F05CFBCF
:102A500098484430FDF7A3FB81B2964844306FE1BB
:102A60001FE0A7E0D3E000F0CBFA924902466431C0
:102A7000686093E000F04CFA8E485430FDF78FFB0D
:102A800081B28C4854305BE100F05EFA8948B7307F
:102A9000FDF785FB81B28748B73051E10B2189A052
:102AA0004EE184497E482D390D30FDF77FFB092426
:102AB000E406002818D07F49794828390D30FDF701
:102AC00075FB002823D07B49754823390D30FDF76D
:102AD0006DFB002830D0774971481E390D30FDF765
:102AE00065FB002845D062E06C48B438FFF7CCF9AC
:102AF00010212046FDF784FF002204212046FEF726
:102B000096F87348FDF74BFB81B2714818E16348B2
:102B1000B438FFF7A1F910212046FDF771FF01221B
:102B200004212046FEF783F869481030FDF737FB93
:102B300081B26748103003E1002204212046FEF7ED
:102B400076F8002210212046FEF771F80220FDF7EA
:102B500049FF012204212046FEF769F80220FDF713
:102B600041FF5B482030FDF71AFB81B25848203006
:102B7000E6E008212046FEF751F8012800D00020A9
:102B80006860012204212046FEF751F8012210213D
:102B90002046FEF74CF84E496A6830314D4801F046
:102BA00055FA4C48FDF7FBFA81B24A48C8E00B21C0
:102BB00049A0C5E03F493A480A390D30FDF7F6FA19
:102BC00000280CD143486830FFF746F94048773079
:102BD000FDF7E5FA81B23E487730FDF7E5FE35496D
:102BE0002F48491F0D30FDF7E1FA00280CD1394874
:102BF0006830FFF749F936488730FDF7D0FA81B2DF
:102C000033488730FDF7D0FE0B2136A098E02949E4
:102C1000234814390D30FDF7C9FA00280AD0254998
:102C20001F480F390D30FDF7C1FA00280AD00B21DB
:102C30002FA085E026485330FDF7B1FA81B2244831
:102C400053307DE022486630FDF7A9FA81B2204872
:102C5000663075E0174912484B390D30FDF7A6FA7A
:102C600000287CD013490E4846390D30FDF79EFAF6
:102C7000002875D00F490A4841390D30FDF796FA02
:102C800000286ED00B49064832390D30FDF78EFA18
:102C9000002867D0074902483C392FE0F808002097
:102CA000180100202534733A2534733A25733B0DFF
:102CB00000000000E14500082534733A2534733BD9
:102CC0000D000000464C53483A45524F523B0D0010
:102CD000F7460008DC070020465047413A45524F6E
:102CE000523B0D00535350493A45524F523B0D0051
:102CF000534F46543A45524F523B0D000D30FDF7AD
:102D000055FA002800D0C9E609AB07CB0A900B970B
:102D100006C305A80FC8069007A80EC004985D4A10
:102D200005901046631C5C490496B438FDF756FACA
:102D3000102000F02BF95948FDF731FA81B25748BD
:102D4000FDF732FE05215648FDF71EFA54480521CD
:102D5000401FFDF719FA4F482821B43803E00DE071
:102D60001EE02FE040E0FDF70FFA4A4840212830EE
:102D7000FDF70AFA002028700FB0F0BD484A454818
:102D8000093A48A1B438FDF729FA287900F0F4F996
:102D900042483038FDF703FA81B240483038CFE777
:102DA0003F4A3C48093A41A1B438FDF717FA686830
:102DB00000F048F939482038FDF7F1F981B2374879
:102DC0002038BDE7364A3348093A38A1B438FDF710
:102DD00005FA686800F0C0F830481038FDF7DFF9F0
:102DE00081B22E481038ABE72D4A2A48093A2FA164
:102DF000B438FDF7F3F91021686800F0D3F82548DE
:102E00000AAE2838017CC47C837C427C1EC6017BD0
:102E1000C47B837B427B06AE1EC6017AC47A837A6A
:102E2000427A02AE1EC6C2798179009101921B4995
:102E3000437902792031CC3801F008F9B1E617491D
:102E40001748C039FDF7B2F9002800D0AFE609AB4A
:102E500007CB0A900B9706C305A80FC8069007A8D2
:102E60000EC004980B4A05901046631C0A4904964C
:102E7000B438FDF7B3F96860102000F087F8074810
:102E8000B230FDF78CF981B20448B23058E70B211B
:102E900008A055E7D0080020E04700088846000851
:102EA000250100203078253032783B0030782530FD
:102EB00036783B00434D4E443A45524F523B0D004D
:102EC0007047F8B50F460B4615460092032104469D
:102ED0000022C90200F072F92026002812D13B46D8
:102EE000002280212046009500F0B3F9002809D186
:102EF00003213B46002249022046009500F05EF97E
:102F0000002803D0206E304320660320F8BD000067
:102F100010B50C49C72008700924E40600221021CE
:102F20002046FDF784FE07497D2308461B01012248
:102F30008C38FFF73BF8012210212046FDF777FE81
:102F400010BD0000D008002010B50920012210217A
:102F5000C006FDF76CFE10BD10B50B4902220A70C9
:102F600002144A7002128A70C870092000221021CF
:102F7000C006FDF75CFE04497D2308461B010422C0
:102F80008C38FFF713F810BDD0080020044982B236
:102F900010B57D2308465B018C38FFF707F810BD9C
:102FA000D008002038B50C46144A032111700314D0
:102FB000537003129370D070002003E01318401C6C
:102FC0001971C0B2A042F9DB0925ED0600221021DB
:102FD0002846FDF72CFE7D2000010849074A009095
:102FE000241D0846A3B2283A8C38FFF797F801222F
:102FF00010212846FDF71BFE38BD0000D008002038
:1030000038B50F490520087048700924E4060022ED
:1030100010212046FDF70BFE7D20C0000849084A1C
:10302000009008460223283A8C38FFF777F80122EF
:1030300010212046FDF7FBFD01482838407838BDB7
:10304000D008002010B50E49D8220A7002144A7028
:1030500002128A70C8700924E4060022102120465A
:10306000FDF7E5FD06497D2308461B0104228C3847
:10307000FEF79CFF012210212046FDF7D8FD10BD70
:10308000D008002010B50C49B92008700924E406C6
:10309000002210212046FDF7CAFD07497D2308467E
:1030A000DB0001228C38FEF781FF0122102120462F
:1030B000FDF7BDFD10BD0000D008002038B5114956
:1030C000AB20087048708870C87008710924E40645
:1030D000002210212046FDF7AAFD7D20C0000949ED
:1030E000084A009008460523283A8C38FFF716F85E
:1030F000012210212046FDF79AFD02482838407928
:1031000038BD0000D008002010B50C49042008701C
:103110000924E406002210212046FDF788FD074916
:103120007D230846DB0001228C38FEF73FFF012299
:1031300010212046FDF77BFD10BD0000D0080020C7
:1031400010B50C49062008700924E406002210215D
:103150002046FDF76CFD07497D230846DB00012270
:103160008C38FEF723FF012210212046FDF75FFD7A
:1031700010BD0000D008002038B50F4901220A70A8
:1031800048700924E406002210212046FDF74FFD77
:103190007D20C0000849084A009008460223283ACA
:1031A0008C38FEF7BBFF012210212046FDF73FFDC2
:1031B00001482838407838BDD0080020F8B51D46B1
:1031C00017460E4604463DE0032149028E4205D1D2
:1031D000002F03D1017B684601700078681C31D054
:1031E000002D05D0FDF72AFD0699401AA84229D3E3
:1031F00020684168E022914341606068C11FFD3949
:103200000CD10121A068C903884202D0491188422B
:1032100004D1206801684022914301600120A16A25
:103220004003814207D121680A6882430A6021680D
:103230000A6802430A60012040346077002020774A
:103240000320F8BD206881683140B942BCD100201C
:10325000F8BDF8B51D4617460E46044633E0681C17
:1032600031D0002D05D0FDF7E9FC0699401AA8429F
:1032700029D320684168E022914341606068C11F02
:10328000FD390CD10121A068C903884202D049113F
:10329000884204D1206801684022914301600120E6
:1032A000A16A4003814207D121680A6882430A600B
:1032B00021680A6802430A600120403460770020D8
:1032C00020770320F8BD206881683046884304D009
:1032D0000020B842C3D10020F8BD0120F9E77047B3
:1032E00010B5FDF7B1FCFFF763F810BD30B595B030
:1032F0000120022501900895009003900004099098
:10330000800000240A900B946846FEF7F7FB002823
:1033100000D0FEE707200C900E9401210D950F942C
:103320000CA8FEF711FB002800D0FEE701204004A6
:1033300010908020149010A8FEF78AFA002800D080
:10334000FEE7FEF797FB7D21C900FCF7EFFEFFF7D4
:1033500017F80420FFF706F800221146501EFDF76B
:10336000C9FC15B030BD00001548016801221143A9
:1033700001604168134A114041600168124A1140DE
:1033800001600168012292049143016041683F227B
:10339000120491434160C16A09090901C162016BCC
:1033A000FF22943291430163016B80221143016338
:1033B000416B49084900416300218160704700006A
:1033C000001002400CB8FF08FFFFF6FEFF30FF3090
:1033D00002308069002806D0FF300021FF30023023
:1033E0004161084670470220704770B5C21DFF3228
:1033F000FA321546946900F055FBE11DFF31FA31B0
:10340000C860A869002808D04868E969CA688321AB
:10341000890061189047002070BD022070BD70B512
:1034200004460025812100F095FA0121204600F094
:1034300091FA8221204600F08DFAFF34FF340234E5
:10344000A069002807D0E06940688047A06900F0C3
:10345000EDFD0020A061284670BDFF3010B5FF30A3
:103460001A300AC8002B0AD0CC1DFF34FA34207859
:10347000FF2804D09B6862789847FF2020700020C6
:1034800010BD00000A2101800048704704000020A0
:1034900043210180004870475400002043210180EF
:1034A0000048704710000020432101800048704709
:1034B00098000020F8B50446007C0126002576021D
:1034C000002830D0402302228121204600F054FB06
:1034D000402302220121204600F04EFB0823032254
:1034E0008221204600F048FB8720800000F0A0FDEC
:1034F000E11DFF31FA31886100281CD00746C869F8
:1035000000688047FF370020FF3702377861B861D5
:10351000207C7A68002810D040230121204600F04A
:1035200041FB2846F8BD334602228121204600F0A7
:1035300023FB3346CDE70125F3E73346EDE710B52E
:103540004321C9000958002913D0027C002A09D060
:10355000FF31FF3102314A684023012100F022FB94
:10356000002010BDFF31FF31023101235B024A68A8
:10357000F3E7022010BD02460220002904D0FF32EA
:10358000FF3202320020D1617047FF30FF3002303D
:103590008069FF30FF300230416000207047FF300B
:1035A000FF3002308069FF30FF30023002618160FD
:1035B0000020704770B50C46C11D0546FF31FA3139
:1035C000207860228E69024022D0202A28D1E28809
:1035D000002A16D0000607D5C96960788B68314685
:1035E0009847E288314618E0F01DFF306178FA30E4
:1035F0000170A1794170E2883146284600F050F808
:103600000EE0C96960788B6800222146984707E080
:1036100060780A2804D103490122284600F05CF8AA
:10362000002070BD0000002010B54321C9000958DA
:10363000002911D0FF31FF3102314A69002A01D03F
:10364000012010BD01224A610A8A93B28A68812151
:1036500000F066FB002010BD022010BD10B58522D1
:103660009200125852689047002010BD134610B5C2
:103670000A46002100F096FA002010BD134610B54E
:103680000A46002100F04CFB002010BD10B5044696
:10369000802100F017FB0021204600F013FB10BD35
:1036A00010B5FF230324F5331C50C31DF9339A6072
:1036B000DA6013460A46002100F074FA002010BDBB
:1036C00010B5FF210522F5310A5000231A4619468C
:1036D00000F068FA002010BD10B5FF230224F53376
:1036E0001C5082611346C2610A46002100F018FB9B
:1036F000002010BD10B5FF210422F5310A5000232F
:103700001A46194600F00CFB002010BD10B50A4601
:10371000024903A000F0D0F8004810BDB80900200D
:1037200043444320436F6E6669670000122008809F
:10373000004870475C01002010B50A46024903A00A
:1037400000F0BAF8004810BDB809002043444320F7
:10375000496E74657266616365000000042008802C
:10376000004870475801002010B50A46024903A0DE
:1037700000F0A2F8004810BDB80900205269636F3C
:103780006E656320496E632E0000000010B50A4686
:10379000024903A000F090F8004810BDB8090020CD
:1037A000694345354C5020444B45204344432070E9
:1037B0006F72740010B50A46024903A000F07CF84D
:1037C000004810BDB8090020303030303030303083
:1037D0003030314100000000F8B50D4604464988FC
:1037E000FF300A0AFF300230130000F043FC0849A2
:1037F00005091649493E46490069237C02682AE0CA
:10380000217C02264069002905D0C16A68468847A4
:103810000146467040E0816AF8E7C9B20B0000F04B
:1038200029FC0604080F13171E2F0069227C436829
:1038300002E00069227C836869461046984712E0DE
:103840000069227CC368F7E70069227C0369F3E71B
:103850000069237C426969461846904703E0006985
:10386000227C8369E8E7014616E0217C002907D124
:103870004069416B68468847F5E7217C002904D000
:1038800029462046FFF702FFF8BD4069016B6846F4
:103890008847072201464270684600880028F3D016
:1038A000EA88002AF0D0824200D9024668460280A7
:1038B0002046FFF711FFF8BD70B5002300281CD08B
:1038C0000446002502E06D1CEDB2641C2678002E33
:1038D000F9D16C00A41C1480CC5403225B1CCA5484
:1038E00000245B1C06E0CA545B1CDAB28C54521CE8
:1038F000D3B2401C0278002AF5D170BD10B5002863
:1039000013D0C31DFF33FA335C69002C01D00024AF
:103910005C61002900D01961FF210123FD310B54A6
:10392000027000F0C7F8002010BD022010BD10B5D5
:10393000FF30FF3002300024006AFDF7CBFA002888
:1039400006D0012801D0022801D0022400E0012481
:10395000204610BD10B5FF30FF3002300024006A51
:10396000FDF704FA002806D0012801D0022801D072
:10397000022400E00124204610BDFEB50446FF30BD
:10398000E51DE130FF35FA3513460190002908D0D6
:1039900068694269002A49D00198007F032843D012
:1039A00044E02646FF3681362046716F14300229E6
:1039B00034D1C26881680092914207D9891A816026
:1039C0008AB219462046FFF759FE13E040681146B7
:1039D0000746FCF7ABFB002913D10098874210D3B0
:1039E000B06F87420DD2002211462046FFF746FEF7
:1039F0000020B06700231A461946204600F0D2F88E
:103A00000CE06869C168002905D00198007F03288F
:103A100001D1204688472046FFF752FE287801282A
:103A200004D10020287001E0204690470020FEBD10
:103A300070B50546FF35E1352B4620331646044662
:103A4000002907D058698269002A29D0287F0328D5
:103A500024D025E0FF21F531E01D0959FD3003296F
:103A60001ED18268C1688A420BD9511A8160C06830
:103A7000814200D301468AB231462046FFF7F6FD67
:103A80000EE058690169002904D0287F032801D17C
:103A9000204688472046FFF72DFE01E0204690474C
:103AA000002070BDFF3010B5FF300230006AFDF716
:103AB0006BFA10BD10B51F49C41DC861FF341E4903
:103AC000FA341E4821620860022208208A60486099
:103AD0000020C8608861C8610A6108620846FDF775
:103AE000E5FD002804D0FF21253115A000F0ACFA37
:103AF000002218231146206AFDF700F958230022FE
:103B00008021206AFDF7FAF8C02300228121206A73
:103B1000FDF7F4F8FF23113300220121206AFDF79D
:103B2000EDF8FF23013300228221206AFDF7E6F839
:103B3000002010BDBC070020BC050020005C004038
:103B40002E2E2F5372632F757362645F636F6E66E0
:103B50002E630000FF30CA09FF3049060230490ECB
:103B60001C23006A59430818002A01D0203001E0C4
:103B7000FF300130807A704770B5FF301D46FF304E
:103B8000023013460024006A2A46FDF707FA00288F
:103B900006D0012801D0022801D0022400E001242F
:103BA000204670BD10B5FF30FF3002300024006A9F
:103BB000FDF746FB002806D0012801D0022801D0DD
:103BC000022400E00124204610BD70B50022044606
:103BD00040231146FFF7D0FF4025FF20113005514B
:103BE0002B46002280212046FFF7C6FFFF2001213F
:103BF000FD3025620155E01DFF30FA308169002952
:103C000004D040692179426820469047002070BD69
:103C1000FF30E130417F01770020704710B5FF2170
:103C2000FD31095C032906D1852189000958C9693C
:103C3000002900D08847002010BD01740020704783
:103C400010B5FF30FF3002300024006AFDF7C2FDDE
:103C5000002806D0012801D0022801D0022400E06B
:103C60000124204610BD70B504464120C000201834
:103C7000054600F068F82146FF31813101220846EF
:103C800080304A67C2898A67007AC106C90E0AD0A5
:103C900001290DD0022910D0C109C901204600F028
:103CA00011F8002070BD2946204600F0B6F8F8E76C
:103CB0002946204600F09DF9F3E72946204600F00A
:103CC00023F9EEE710B5FF30FF3002300024006A20
:103CD000FDF752FB002806D0012801D0022801D0B0
:103CE000022400E00124204610BD10B5FF30FF3053
:103CF00002300024006AFDF78EFD002806D001285E
:103D000001D0022801D0022400E00124204610BD89
:103D1000FF30E130017F41770421017700207047B7
:103D200010B5FF30FF3002300024006AFDF76EFB53
:103D3000002806D0012801D0022801D0022400E08A
:103D40000124204610BD0A7802704A784270CB7870
:103D50008A781B02D21842804B790A791B02D2184A
:103D600082808A79C97909025118C1807047024658
:103D70000020002904D0FF32FF3202325161704727
:103D80000220704710B58522920012580224002AA2
:103D900004D012689047002800D10024204610BDAE
:103DA00070B50E468978194D04462970012904D949
:103DB00031462046FFF76AFC70BD2046FF30E130F7
:103DC000027F022A15D0032AF2D1002917D0606899
:103DD00088420AD0C1B22046FFF740FC29786160D2
:103DE0002046FFF7CFFF0228E2D02046FFF782FCF3
:103DF00070BD0029F9D0032261600277F0E702224A
:103E0000027720466160FFF729FCEEE714010020ED
:103E100010B5FFF76AFF002010BDF8B50022009230
:103E2000C61DFF364C781746FA3632460125203A31
:103E3000230000F01FF90A3C564150410906412B6E
:103E40002841FFF7C9FC5DE004468888002818D1A6
:103E5000C888002815D1887817464606107F760E48
:103E600003280ED0BE7731462046FFF7E9FE2046F4
:103E7000FFF740FC002E02D00220387742E03D7769
:103E800040E0204618E0FFF78BFF3BE0CB88012B9A
:103E900012D1127F022A02D0032A0DD104E001229E
:103EA00001460831876013E00122011D10E0127FF6
:103EB000022A04D0032A02D0FFF7E8FB22E0C56003
:103EC0007168002901D00321C160014602220C3132
:103ED000FFF702FC16E004464888012812D17560FD
:103EE00009E00446107F022801D00328C9D1488880
:103EF000012807D177607069826820469047204684
:103F0000FFF7F8FB0098F8BDF8B504460D46287891
:103F1000E61D4006FF3600270979800FFA36012892
:103F200009D06A7830462038002A38D0012A1ED0BD
:103F3000032A3DD106E070692946826820469047F1
:103F40000020F8BD007F022817D003282CD16888F4
:103F5000002806D1002904D0802902D02046FFF78E
:103F6000B1FE7069294682682046904713E0007FC1
:103F7000022802D0032817D104E0002918D0802994
:103F80001AD115E06888002812D1480603D02046CF
:103F9000FFF7CDFCE5E72046FFF7ACFB08E0007F2C
:103FA000022807D003280BD029462046FFF76EFBD6
:103FB0003846F8BD4806FBD02046FFF783FEF7E7FA
:103FC000C80904D04806400D0519143504E0480618
:103FD000400D0519FF3505352046FFF7BBFD0028CC
:103FE00000D001202860022229462046FFF774FBFA
:103FF000DEE770B50446FF30E130007F0D46032850
:104000000FD1287901280CD88520800000598268BA
:1040100020469047E888002806D12046FFF76AFB33
:1040200002E02046FFF732FB002070BD7047000021
:10403000004870479C03002010B50248FDF7B0FA15
:1040400010BD0000BC050020FEE700000FB410B555
:1040500004A9074B02AA039800F028F8044602A915
:10406000002000F05DFA204610BC08BC04B01847E0
:104070002145000830B47446641E2578641CAB42A8
:1040800000D21D46635D5B00E31830BC184702E0B8
:1040900008C8121F08C1002AFAD1704770470020D3
:1040A00001E001C1121F002AFBD17047FFB591B09A
:1040B0000F460546002606E025280AD0149A1399D3
:1040C00090476D1C761C28780028F5D1304615B035
:1040D000F0BD002400940121F34A029400E004435F
:1040E0006D1C2B780846203B98401042F7D1287869
:1040F0002A280ED0022128780246303A092A15D8FB
:10410000009A0A235A43303A80180C436D1C0090E1
:10411000F1E701CF0090002805DA012040030443B5
:10412000009840420090022004436D1C28782E28FD
:1041300015D10420044368786D1C2A280AD101CFC8
:104140006D1C02900BE002990A225143303940184D
:104150006D1C02902878014630390929F3D9287856
:104160006C2810D006DC4C281AD068280ED06A289B
:1041700017D104E0742813D07A2812D110E001205E
:10418000400504430CE00121090501E00321090574
:104190000C436978814203D10120000524186D1C6D
:1041A0006D1C287803906E281ED00CDC632831D05B
:1041B00004DC00288AD0582811D1B2E064287BD0D2
:1041C00069280CD178E073282DD004DC6F2870D0DA
:1041D000702804D1A7E075286CD078286BD0149A89
:1041E00013999047761C62E06002400F022807D0C6
:1041F00003280AD0042838680AD006603F1D56E01C
:104200003868F11706604160F8E738680680F5E71E
:104210000670F3E73878694608740020487404A8EB
:104220000390012003E0386803900020C0433F1D45
:1042300061070FD5002101E00199491C029A019103
:10424000914213DA8142F7DB019A0399895C0029D4
:10425000F2D10BE0002101E00199491C019181425A
:10426000FADB019A0399895C0029F5D1019900983C
:10427000139A401A00902146149B00F03BF90199D3
:104280008019461807E0039803990078491C0391A8
:10429000149A139990470198401E0190401CF2D146
:1042A0002146149B139A009800F014F986196D1C8E
:1042B00009E741E033E034E00A2000210490059151
:1042C0006002410F022905D001CFC217944603298D
:1042D00005D007E0FF1DFF08FF0003CF06E000B296
:1042E000C2179446042902D140B2C1178C4600225D
:1042F0006146944506DA0A460021404291418C46C7
:104300002D2102E0210504D52B216A4611760121D9
:1043100003E0E10701D02021F7E7019154E00A20F2
:104320000BE0102009E01020049000210420044339
:1043300008200591029003E00820002105910490D7
:104340006002410F022905D001CF002294460329C3
:1043500006D006E0FF1DFF08FF0003CF8C4603E0F8
:1043600080B2042900D1C0B20021019121072BD5D0
:104370000399702906D0049A1021059B4A401A43DC
:1043800005D00EE040216A461176012108E0614621
:10439000014306D030216A461176039951760221F5
:1043A0000191049A0821059B4A401A430CD16146A9
:1043B000014301D1610707D530216A4611760121F9
:1043C00001910299491E02910399582904D037A1FD
:1043D00003910FA90F910DE039A1F9E76146059B03
:1043E000049AFCF732F8039B8C469B5C0F9A521E92
:1043F0000F92137061460143F0D10F9807A9081A74
:1044000020300390600704D5012000048443029803
:1044100001E0012002900399884201DD401A00E08A
:10442000002041180290019809180098401A009045
:10443000E00306D42146149B139A009800F05AF822
:1044400086190020049008E006A9085C149A1399C4
:1044500090470498401C761C049001998842F3DB35
:10446000E0030CD52146149B139A009800F042F803
:10447000861904E0149A302013999047761C02990B
:10448000481E02900029F5DC08E00F980F9900788B
:10449000491C0F91149A13999047761C0399481E52
:1044A00003900029F1DCFBE60928010030313233AA
:1044B0003435363738396162636465660000000060
:1044C000303132333435363738394142434445464A
:1044D00000000000F8B5044600251E461746880473
:1044E00004D405E039462020B0476D1C641EF9D580
:1044F0002846F8BDFFB50446002581B01E46C80316
:1045000001D5302700E02027880404D505E038468F
:104510000399B0476D1C641EF9D5284605B0F0BD5F
:104520000A68531C0B60107070470000FCF794FB86
:10453000FEF7DCFEFDF742FFFDF7AEFFFDF786FF5D
:104540000924E406002204212046FCF770FB084DF4
:10455000084E2878012801D1FEF7A0F9082120464D
:10456000FCF75CFB024602213046FCF760FBF0E7FB
:1045700018010020000400485245534C00444550A7
:104580004F005752454E005752444900425545523C
:104590000052445352005752535200534545520063
:1045A000505041520050504252005050434F005220
:1045B000454144005253544E004653455400434F26
:1045C000534C00434F444F00434F5752004944451A
:1045D0004E0056455253004445494E00494E4954F9
:1045E00000464C5348004650474100535350490041
:1045F000534F465400464C53483A5245534C3A4F59
:104600004B213B0D00464C53483A4445504F3A4FDE
:104610004B213B0D00464C53483A5752454E3A4FBA
:104620004B213B0D00464C53483A575244493A4FB0
:104630004B213B0D00464C53483A425545523A4FA8
:104640004B213B0D00464C53483A524453523A30AA
:1046500078253032783B0D00464C53483A57525338
:10466000523A4F4B213B0D00464C53483A53454577
:10467000523A4F4B213B0D00464C53483A50504163
:10468000523A4F4B213B0D00464C53483A50504252
:10469000523A4F4B213B0D00464C53483A50504341
:1046A0004F3A4F4B213B0D00464C53483A5245413F
:1046B000443A3078253032782530327825303278D7
:1046C00025303278253032782530327825303278EE
:1046D00025303278253032782530327825303278DE
:1046E00025303278253032782530327825303278CE
:1046F000253032783B0D00465047413A5253544ED4
:104700003A4F4B210D3B00465047413A46534554E2
:104710003A4F4B213B0D00465047413A434F534CD3
:104720003A4F4B213B0D00465047413A434F444FCF
:104730003A3078253032783B0D00465047413A43B5
:104740004F57523A4F4B213B0D00534F46543A4975
:1047500044454E3A694345354C503B0D00534F4656
:10476000543A564552533A76312E303B0D0053534E
:1047700050493A4445494E3A4F4B213B0D00535363
:1047800050493A494E49543A4F4B213B0D000000E5
:104790000000000000000102030406070809DDDD37
:1047A000DDDDDCBBBBDDDDDDDDDDDDDDDDDD988818
:1047B0008888888888887777777777888888855504
:1047C000555666666666666666666668888883337A
:1047D000333222222222222222222228888D000005
:1047E000307825303268687825303268687825302E
:1047F00032686878253032686878253032686878A1
:10480000253032686878253032686878253032681B
:1048100068782530326868782530326868782530C5
:104820003268687825303268687825303268687870
:1048300025303268687825303268687825303268EB
:1048400068783B0064480008000000207801000000
:10485000E80800082449000878010020400F000003
:104860009E40000841130A06320233400114090237
:104870004313020125C03209041B01020B13052456
:104880001610010524011009010424020205240662
:1048900017010705820308151009040133020A1DD8
:1048A00007050102432C070581070938442A400700
:1048B0002A8107112B0907440A2204440A16FF44DF
:1048C00013B5341B081F0413B53542081A5B0C13CB
:1048D000CD331B08EB04C11A9D181A91041AA904C0
:1048E0001A850481F2FF1349091B0843041A3F0487
:1048F0001A6D04132D371B085D041A69041A8D0400
:104900001AB5041A0D041A39041E04030904129777
:104910001302021E4083044057CD34020301531298
:044920007A00000019
:04000005080000C12E
:00000001FF
