:02000000ff00ff
:080002004c6174746963650030
:17000a00694345637562653220323031372e30312e3237393134006f
:14002100506172743a20694345354c50324b2d534734380068
:1b003500446174653a204a756e20323920323031372032333a33373a3036006d
:0200500000ffaf
:040052007eaa997e6b
:02005600510057
:020058000105a0
:03005a00920020f1
:03005d006202b389
:030060007200b07b
:0300630082000018
:02006600110087
:02006800010194
:20006a00000000000000000000000010000000000000400000000000010000000000000421
:20008a000000000000001000000000000040100000000000000000000040000000000001b5
:1600aa0000000000000004000000000000100000000000004000ec
:2000c0000000000000000000000000020000000000000800000000000020000000000000f6
:2000e000800000000000000000000000000000000000000000000000000800000000000078
:1701000020000000000000800000000000020000000000000800003e
:200117000000000000000000000000000000000000000000000000000000000000000000c8
:20013700000000000000000000000000000010000000000000000000000000000000000098
:160157000000000000000000000000000000000000000000000092
:20016d00000000000000000000000000000000000000000000000000000000000000000072
:20018d00000000000000000000000000000000000000000000000000000000000000000052
:1701ad0000000000000000000000000000000000000000000000003b
:2001c40000000000000000000000000000000000000000000000000000000000000000001b
:2001e4000000000000000000000000000000200200000000000000000000000000000000d9
:1602040000000000000000000000000000000000000000000000e4
:20021a000000000000000000000000000000000000000000000000000000000000000000c4
:20023a00000000000000000000000000000000002400100000000000000000000000000070
:17025a0000000000000000000000000000000000000000000000008d
:2002710000000000000000000000000000000000000000000000000000000000000000006d
:2002910000000000400000000000000000000000000000000000000000000000000000000d
:1602b1000000000000000000000000000000000000000000000037
:2002c700000000000000000000000000000000000000000000000000000000000000000017
:2002e7000000000020000000000000000000000000000000000000000000000000000000d7
:170307000000000000000000000000000000000000000000000000df
:20031e000000000000000000000000000000000000000000000000000000000000000000bf
:20033e0000000000000000000000000000000000008000000000000000000000000000001f
:16035e000000000000000000000000000000000000000000000089
:20037400000000000000000000000000000000000000000000000000000000000000000069
:20039400000000000000000000000000000000000000000000000000000000000000000049
:1703b400000000000000000000000000000000000000000000000032
:2003cb00000000000000000000000000000000000000000000000000000000000000000012
:2003eb000000000000010000000000000400000000030000000000000000000000000000ea
:16040b0000000000000000000000000000000000000000000000db
:200421000000000000000000000000000000000000000000000000000000000000000000bb
:20044100000001000000100000040000000001000000100000000000000000000000000075
:17046100000000000000000000000000000000000000000000000084
:20047800000000000000000000000000000000000000000000000000000000000000000064
:20049800000000000000000000000000000000000000000000000000000000000000000044
:1604b800000000000000000000000000000000000000000000002e
:2004ce0000000000000000000000000000000000000000000000000000000000000000000e
:2004ee000000010000000000000400000000010000000000000000000000000000000000e8
:17050e000000000000000000000000000000000000000000000000d6
:200525000000000000000000000000000000000000000000000000000000000000000000b6
:200545000000000000400000000000010000000240400000000000000000000000000000d3
:160565000000000000000000000000000000000000000000000080
:20057b00000000000000000000000000000000000000000000000000000000000000000060
:20059b000000020000000000000800500000020020000000000000000000000000000000c4
:1705bb00000000000000000000000000000000000000000000000029
:2005d200000000000c30200000000000000000000000000000000000000000000000000f9e
:2005f200f400000000000000000000000000000000003fd0000000000000000000000000e6
:1606120000000000000000000000000000000000000000000000d2
:200628000000000000c30000000000000000000000000000000000000000000000000000ef
:20064800ff000000000000000000000000000000100003fc00000000000000000000000084
:1706680000000000000000000000000000000000000000000000007b
:20067f00000000000c30200000000000000000000000000000000000000000a0000000005f
:20069f000000000000000000000000000000800000003fd0000000000000000000000000ac
:1606bf000000000000000000000000000000000000000000000025
:2006d5000000000000c3000000000000000000000000000000000000000000020000000040
:2006f50000000000000000000000000000000800000003fc000000000000000000000000de
:170715000000000000000000000000000000000000000000000000cd
:20072c00000000000c30200000000000000000000000000000000000000000000000000051
:20074c000000000000000000000000000000000000003fd00000000000000000000000007e
:16076c000000000000000000000000000000000000000000000077
:200782000000000000c3000000000000000000000000000000000000000000000000000094
:2007a20000000000000000000000000000000000000003fc00000000000000000000000038
:1707c200000000000000000000000000000000000000000000000020
:2007d900000000000c302000000000000000000000000000000000000000000000000000a4
:2007f9000000000000000000000000000000000000000000000000000000000000000000e0
:1608190000000000000000000000000000000000000000000000c9
:20082f000000000000c30000000000000000000000000000000000000000000000000000e6
:20084f00000000000000000000000000000000000000000000000000000000000000000089
:17086f00000000000000000000000000000000000000000000000072
:20088600000000000c302000000000000000000000000000000000000000000002000000f4
:2008a600000000000000000000000000000000000000000000000000000000000000000032
:1608c600000000000000000000000000000000000000000000001c
:2008dc000000000000c300000000000000000000000000000000000000000000000c00002d
:2008fc000000000000000000000000000000000000000000000000000000000000000000dc
:17091c000000000000000000000000000000000000000000000000c4
:20093300000000000c30200000000000000000000000000000000000000000000000000048
:20095300000000000000000000000000000000000000000000000000000000000000000084
:16097300000000000000000000000000000000000000000000006e
:200989000000000000c300000000000000000000000000000000000000000000000000008b
:2009a90000000000000000000000000000000000000000000000000000000000000000002e
:1709c900000000000000000000000000000000000000000000000017
:2009e000000000000c3020000000000000000000000000000000000000000000000000009b
:200a00000000000000000000000000000000000000000000000000000000000000000000d6
:160a200000000000000000000000000000000000000000000000c0
:200a36000000000000c30000000000000000000000000000000000000000000000000000dd
:200a5600000000000000000000000000000000000000000000000000000000000000000080
:170a7600000000000000000000000000000000000000000000000069
:200a8d00000000000c302000000000000000000000000000000000000000000000000000ed
:200aad00000000000000000000000000000000000000000000000000000000000000000029
:160acd000000000000000000000000000000000000000000000013
:200ae3000000000000c3000000000000000000000000000000000000000000000000000030
:200b03000000000000000000000000000000000000000000000000000000000000000000d2
:170b23000000000000000000000000000000000000000000000000bb
:200b3a00000000000c3020000000000000000000000000000000000000000000000000003f
:200b5a0000000000000000000000000000000000000000000000000000000000000000007b
:160b7a000000000000000000000000000000000000000000000065
:200b90000000000000c3000000000000000000000000000000000000000000000000000082
:200bb000000000000000000000000000000000000000000000000000000000000000000025
:170bd00000000000000000000000000000000000000000000000000e
:200be700000000000c30200000000000000000000000000000000000000000000000000092
:200c07000000000000000000000000000000000000000000000000000000000000000000cd
:160c270000000000000000000000000000000000000000000000b7
:200c3d000000000000c30000000000000000000000000000000000000000000000000000d4
:200c5d00000000000000000000000000000000000000000000000000000000000000000077
:170c7d00000000000000000000000000000000000000000000000060
:200c9400000000000c302000000000000000000000000000000000000000000000000000e4
:200cb400000000000000000000000000000000000000000000000000000000000000000020
:160cd400000000000000000000000000000000000000000000000a
:200cea000000000000c3000000000000000000000000000000000000000000000000000027
:200d0a000000000000000000000000000000000000000000000000000000000000000000c9
:170d2a000000000000000000000000000000000000000000000000b2
:200d4100000000000c30200000000000000000000000000000000000000000000000000036
:200d6100000000000000000000000000000000000000000000000000000000000000000072
:160d8100000000000000000000000000000000000000000000005c
:200d97000000000000c3000000000000000000000000000000000000000000000000000079
:200db70000000000000000000000000000000000000000000000000000000000000000001c
:170dd700000000000000000000000000000000000000000000000005
:200dee00000000000c30200000000000000000000000000000000000000000000000000089
:200e0e000000000000000000000000000000000000000000000000000000000000000000c4
:160e2e0000000000000000000000000000000000000000000000ae
:200e44000000000000c30000000000000000000000000000000000000000000000000000cb
:200e640000000000000000000000000000000000000000000000000000000000000000006e
:170e8400000000000000000000000000000000000000000000000057
:200e9b00000000000c302000000000000000000000000000000000000000000000000000db
:200ebb00000000000000000000000000000000000000000000000000000000000000000017
:160edb000000000000000000000000000000000000000000000001
:200ef1000000000000c300000000000000000000000000000000000000000000000000001e
:200f11000000000000000000000000000000000000000000000000000000000000000000c0
:170f31000000000000000000000000000000000000000000000000a9
:200f4800000000000c3020000000000000000000000000000000000000000000000000002d
:200f6800000000000000000000000000000000000000000000000000000000000000000069
:160f88000000000000000000000000000000000000000000000053
:200f9e000000000000c3000000000000000000000000000000000000000000000000000070
:200fbe00000000000000000000000000000000000000000000000000000000000000000013
:170fde000000000000000000000000000000000000000000000000fc
:200ff500000000000c30200000000000000000000000000000000000000000000000000080
:201015000000000000000000000000000000000000000000000000000000000000000000bb
:1610350000000000000000000000000000000000000000000000a5
:20104b000000000000c30000000000000000000000000000000000000000000000000000c2
:20106b00000000000000000000000000000000000000000000000000000000000000000065
:17108b0000000000000000000000000000000000000000000000004e
:2010a200000000000c302000000000000000000000000000000000000000000000000000d2
:2010c20000000000000000000000000000000000000000000080000000000000000000008e
:1610e20000000000000000000000000000000000000000000000f8
:2010f8000000000000c30000000000000000000000000000000000000000000040000000d5
:201118000000000000000000000000000000000000000000000400000000000000000000b3
:171138000000000000000000000000000000000000000000000000a0
:20114f00000000000c30200000000000000000000000000000000000000000000000000024
:20116f00000000000000000000000000000000000000000000000000000000000000000060
:16118f00000000000000000000000000000000000000000000004a
:2011a5000000000000c3000000000000000000000000000000000000000000000000000067
:2011c50000000000000000000000000000000000000000000000000000000000000000000a
:1711e5000000000000000000000000000000000000000000000000f3
:2011fc00000000000c30200000000000000000000000000000000000000000000000000077
:20121c000000000000000000000000000000000000000000000000000000000000000000b2
:16123c00000000000000000000000000000000000000000000009c
:201252000000000000c30000000000000000000000000000000000000000000000000000b9
:2012720000000000000000000000000000000000000000000000000000000000000000005c
:17129200000000000000000000000000000000000000000000000045
:2012a900000000000c302000000000000000000000000000000000000000000000000000c9
:2012c900000000000000000000000000000000000000000000000000000000000000000005
:1612e90000000000000000000000000000000000000000000000ef
:2012ff000000000000c300000000000000000000000000000000000000000000000000000c
:20131f000000000000000000000000000000000000000000000000000000000000000000ae
:17133f00000000000000000000000000000000000000000000000097
:20135600000000000c3020000000000000000000000000000000000000000000000000001b
:20137600000000000000000000000000000000000000000000000000000000000000000057
:161396000000000000000000000000000000000000000000000041
:2013ac000000000000c300000000000000000000000000000000000000000000000000005e
:2013cc00000000000000000000000000000000000000000000000000000000000000000001
:1713ec000000000000000000000000000000000000000000000000ea
:20140300000000000c3020000000000000000000000000000000000000000000000000006d
:201423000000000000000000000000000000000000000000000000000000000000000000a9
:161443000000000000000000000000000000000000000000000093
:201459000000000000c30000000000000000000000000000000000000000000000000000b0
:20147900000000000000000000000000000000000000000000000000000000000000000053
:1714990000000000000000000000000000000000000000000000003c
:2014b000000000000c302000000000000000000000000000000000000000000000000000c0
:2014d0000000000040000000000000000000000000000000000000000000000000000000bc
:1614f00000000000000000000000000000000000000000000000e6
:201506000000000000c3000000000000000000000000000000000000000000000000000002
:201526000000000000000000000000000000000000000000000000000000000000000000a5
:1715460000000000000000000000000000000000000000000000008e
:20155d00000000000c30200000000000000000000000000000000000000000000000000012
:20157d0000000000000000000000000000000000000000000000000000000000000000004e
:16159d000000000000000000000000000000000000000000000038
:2015b3000000000000c3000000000000000000000000000000000000000000000000000055
:2015d3000000000000000000000000000000000000000000000000000000000000000000f8
:1715f3000000000000000000000000000000000000000000000000e1
:20160a00000000000c30200000000000000000000000000000000000000000000000000064
:20162a000000000000000000000000000000000000000000000000000000000000000000a0
:16164a00000000000000000000000000000000000000000000008a
:201660000000000000c30000000000000000000000000000000000000000000000000000a7
:2016800000000000000000000000000000000000000000000000000000000000000000004a
:1716a000000000000000000000000000000000000000000000000033
:2016b700000000000c302000000000000000000000000000000000000000000000000000b7
:2016d7000000000000000000000000000000000000000000000000000000000000000000f3
:1616f70000000000000000000000000000000000000000000000dd
:20170d000000000000c30000000000000000000000000000000000000000000000000000f9
:20172d0000000000000000000000000000000000000000000000000000000000000000009c
:17174d00000000000000000000000000000000000000000000000085
:20176400000000000c30200000000000000000000000000000000000000000000000000009
:20178400000000000000000000000000000000000000000000000000000000000000000045
:1617a400000000000000000000000000000000000000000000002f
:2017ba000000000000c300000000000000000000000000000000000000000000000000004c
:2017da000000000000000000000000000000000000000000000000000000000000000000ef
:1717fa000000000000000000000000000000000000000000000000d8
:20181100000000000c3020000000000000000000000000000000000000000000000000005b
:20183100000000000000000000000000000000000000000000000000000000000000000097
:161851000000000000000000000000000000000000000000000081
:201867000000000000c300000000000000000000000000000000000000000000000000009e
:20188700000000000000000000000000000000000000000000000000000000000000000041
:1718a70000000000000000000000000000000000000000000000002a
:2018be00000000000c302000000000000000000000000000000000000000000000000000ae
:2018de000000000000000000000000000000000000000000000000000000000000000000ea
:1618fe0000000000000000000000000000000000000000000000d4
:201914000000000000c30000000000000000000000000000000000000000000000000000f0
:20193400000000000000000000000000000000000000000000000000000000000000000093
:1719540000000000000000000000000000000000000000000000007c
:20196b00000000000c30200000000000000000000000000000000000000000000000000000
:20198b0000000000000000000000000000000000000000000000000000000000000000003c
:1619ab000000000000000000000000000000000000000000000026
:2019c1000000000000c3000000000000000000000000000000000000000000000000000043
:2019e1000000000000000000000000000000000000000000000000000000000000000000e6
:171a01000000000000000000000000000000000000000000000000ce
:201a1800000000000c30200000000000000000000000000000000000000000000000000052
:201a380000000000000000000000000000000000000000000000000000000000000000008e
:161a58000000000000000000000000000000000000000000000078
:201a6e000000000000c3000000000000000000000000000000000000000000000000000095
:201a8e00000000000000000000000000000000000000000000000000000000000000000038
:171aae00000000000000000000000000000000000000000000000021
:201ac500000000000c302000000000000000000000000000000000000000000000000000a5
:201ae5000000000000000000000000000000000000000000000000000000000000000000e1
:161b050000000000000000000000000000000000000000000000ca
:201b1b000000000000c30000000000000000000000000000000000000000000000000000e7
:201b3b0000000000000000000000000000000000000000000000000000000000000000008a
:171b5b00000000000000000000000000000000000000000000000073
:201b7200000000000000000000000000000000000000000000000000000000000000000053
:201b9200000000000000000000000000000000000000000000000000000000000000000033
:023be2000000e1
:023be4001101cd
:023be6000101db
:203be800000000000000000000000010000000000000400000000000010000000000000468
:203c08000000000000001000000000000040000000001000004000000000000100000000fb
:163c28000000000000000400000000000010000000000000400032
:203c3e0000000000000000000000000200000000000008000000000000200000000000003c
:203c5e008000000000000200000000000008000000000200000000000000000000000000ba
:173c7e000000000000000080000000000002000000000000080000a5
:203c950000000000000000000000000000000000000000000000000000000000000000000f
:203cb5000000000000000000000000000000000000000000004000000000000100000000ae
:163cd50000000000000000000000000000000000000000000000d9
:203ceb000000000000000000000000000000000000000000000000000000000000000000b9
:203d0b00000000000000000000000000000000000000000000000000000000000000000098
:173d2b00000000000000000000000000000000000000000000000081
:203d4200000000000000000000000000000000000000000000000000000000000000000061
:203d62000000000000000000000000000000000000000000008008000400000200000000b3
:163d8200000000000000000000000000000000000000000000002b
:203d980000000000000000000000000000000000000000000000000000000000000000000b
:203db80000000000000000000000000000000000000000000000009000400000000000011a
:173dd8000000000000000000000000000000000000000000000000d4
:203def000000000000000000000000000000000000000000000000000000000000000000b4
:203e0f00000000000000000000000000000000000000000000000080000000000000000013
:163e2f00000000000000000000000000000000000000000000007d
:203e450000000000000000000000000000000000000000000000000000000000000000005d
:203e6500000000000000000000000000000000000000000000000018000000000000000025
:173e8500000000000000000000000000000000000000000000000026
:203e9c00000000000000000000000000000000000000000000000000000000000000000006
:203ebc000000000000000000000000000000000000000000000000020000000000000800dc
:163edc0000000000000000000000000000000000000000000000d0
:203ef2000000000000000000000000000000000000000000000000000000000000000000b0
:203f120000000000000000000000000000000000000000000000000000000000000000008f
:173f3200000000000000000000000000000000000000000000000078
:203f4900000000000000000000000000000000000000000000000000000000000000000058
:203f69000000000000000000000000000000000000000000000000000c00000000000030fc
:163f89000000000000000000000000000000000000000000000022
:203f9f00000000000000000000000000000000000000000000000000000000000000000002
:203fbf0000000000000000000000000000000000000000000004000000400000100000008e
:173fdf000000000000000000000000000000000000000000000000cb
:203ff6000000000000000000000000000000000000000000000000000000000000000000ab
:20401600000000000000000000000000000000000000000000000000000000000006000084
:164036000000000000000000000000000000000000000000000074
:20404c00000000000000000000000000000000000000000000000000000000000000000054
:20406c00000000000000000000000000000000000000000000040000000000001000000020
:17408c0000000000000000000000000000000000000000000000001d
:2040a3000000000000000000000000000000000000000000000000000000000000000000fd
:2040c3000000000000000000000000000000000000000000000000010000000000040400d4
:1640e30000000000000000000000000000000000000000000000c7
:2040f9000000000000000000000000000000000000000000000000000100000000000004a2
:2041190000000000000000000000000000000000000010000008000000400000200200000c
:1741390000000000000000000000000000100000000000004000001f
:20415000000000000c30000000000000000000000000000000000000000000000000000013
:2041700000000000000000000000000000000000000000000000000000000000000000002f
:164190000000000000000000000000000000000000000000000019
:2041a6000000000000c3020000000000000000000000000000000000000000000000000034
:2041c6000000000000000000000000000000000000000000000000000000000000000000d9
:1741e6000000000000000000000000000000000000000000000000c2
:2041fd00000000000c30000000000000000000000000000000000000000000000000000066
:20421d0000000000000000000000000000000000000000000000020000000000000000007f
:16423d00000000000000000000000000000000000000000000006b
:204253000000000000c3020000000000000000000000000000000000000000000000000086
:204273000000000000000000000000000000000000000000000001e000000000000000004a
:17429300000000000000000000000000000000000000000000000014
:2042aa000002c0000c300000000000000000000000000000000000000000000000000000f6
:2042ca000000000000000000000000000000000000000000000000000000000000000000d4
:1642ea0000000000000000000000000000000000000000000000be
:204300000000200000c30200000000000000000000000000000000000000000000000000b8
:2043200000000000000000000000000000000000000000000000000000000000000000007d
:17434000000000000000000000000000000000000000000000000066
:20435700000140000c300000000000000000000000000000000000000000000000000000c9
:20437700000000000000000000000000000000000000000000000000000000000000000026
:164397000000000000000000000000000000000000000000000010
:2043ad000000200040c30200000000000000000000000000000000000000000000000000cb
:2043cd000000000000000000000000000000000000000000000000000000000000000000d0
:1743ed000000000000000000000000000000000000000000000000b9
:20440400000000000c3000000000000000000000000000000000000000000000000000005c
:2044240000000000000000000000000000000000000000000000000000ff00000000000079
:164444000000000000000000000000000000000000000000000062
:20445a0000000000e0c302000000000000000000000000000000000000000000000000009d
:20447a00000000000000000000000000000000000000000000000000000ff400000000001f
:17449a0000000000000000000000000000000000000000000000000b
:2044b100010000000c300000000000000000000000000000000000000000000000000000ae
:2044d10000000000000000000000000000000000000000000000000000ff000000000000cc
:1644f10000000000000000000000000000000000000000000000b5
:204507000000000060c302000000000000000000000000000000000000000000000000006f
:20452700000000000000000000000000000000000000000000000000000ff4000000000071
:1745470000000000000000000000000000000000000000000000005d
:20455e00010020000c300000000000000000000000000000000000000000000000000000e0
:20457e0000000000000000000400000000000000000000000a00000000ff00000000000010
:16459e000000000000000000000000000000000000000000000007
:2045b40000100e00c0c3020000000000000000000000000000000000000000000000000044
:2045d400000000000000000000000000000000000000000000a00000000ff4000000000024
:1745f4000000000000000000000000000000000000000000000000b0
:20460b00000000000c3000000000003fc00000000000000000000000000000000000000054
:20462b0000000000000000000000000000000000000000000000000000ff00000000000070
:16464b000000000000000000000000000000000000000000000059
:2046610000001c0000c3020000000003fc0000000000000000000000000000000000000059
:20468100000000000000000000000000000000000000000000000000000ff4000000000016
:1746a100000000000000000000000000000000000000000000000002
:2046b800000000000c300000000000000000000000000000000000000000000000000000a6
:2046d8000000000000000000000000000000000000000000000000000000000000000000c2
:1646f80000000000000000000000000000000000000000000000ac
:20470e000000000000c30200000000000000000000000000000000000000000000000000c6
:20472e0000000000000000000000000000000000000000000000000000000000000000006b
:17474e00000000000000000000000000000000000000000000000054
:20476500000000000c300000000000000000000000000000000000000000000000000000f8
:20478500000000000000000000000000000000000000000000000000000000000000000014
:1647a50000000000000000000000000000000000000000000000fe
:2047bb000000000000c3020000000000000000000000000000000000000000000000000019
:2047db000000000000000000000000000000000000000000000000000000000000000000be
:1747fb000000000000000000000000000000000000000000000000a7
:20481200000000000c3000000000000000000000000000000000000000000000000000004a
:20483200000000000000000000000000000000000000000000000000000000000000000066
:164852000000000000000000000000000000000000000000000050
:204868000000000000c302000000000000000000000000000000000000000000000000006b
:20488800000000000000000000000000000000000000000000000000000000000000000010
:1748a8000000000000000000000000000000000000000000000000f9
:2048bf00000000000c3000000000000000000000000000000000000000000000000000009d
:2048df000000000000000000000000000000000000000000000000000000000000000000b9
:1648ff0000000000000000000000000000000000000000000000a3
:204915000000000000c30200000000000000000000000000000000000000000000000000bd
:20493500000000000000000000000000000000000000000000000000000000000000000062
:1749550000000000000000000000000000000000000000000000004b
:20496c00010000000c300000000000000000000000000000000000000000000000000000ee
:20498c0000000000000000000000000000000000000000000000000000000000000000000b
:1649ac0000000000000000000000000000000000000000000000f5
:2049c2000000000000c3020000000000000000000000000000000000000000000000000010
:2049e2000000000000000000000000000000000000000000000000000000000000000000b5
:174a020000000000000000000000000000000000000000000000009d
:204a1900010000000c30000000000000000000000000000000000000000000000000000040
:204a390000000000000000000000000000000000000000000000000000000000000000005d
:164a59000000000000000000000000000000000000000000000047
:204a6f000010000000c302080000000000000000000000000000000000000000000000004a
:204a8f00000000000000000000000000000000000000000000000000000000000000000007
:174aaf000000000000000000000000000000000000000000000000f0
:204ac60000e000000c300000000000000000000000000000000000000000000000000000b4
:204ae600000000000000000000000000000040000000000000000000000000000000000070
:164b06000000000000000000000000000000000000000000000099
:204b1c000000000000c30200000000000000000000000000000000000000000000000000b4
:204b3c00000000000000000000000000000004000000000000000000000000000000000055
:174b5c00000000000000000000000000000000000000000000000042
:204b7300010000000c300000000000000000000000000000000000000000000000000000e5
:204b9300000000000000000000000000000000000000000000000000000000000000000002
:164bb30000000000000000000000000000000000000000000000ec
:204bc9000000000000c3020000000000000000000000000000000000000000000000000007
:204be9000000000000000000000000000000000000000000000000000000000000000000ac
:174c0900000000000000000000000000000000000000000000000094
:204c2000000000000c30000000000000000000000000000000000000000000000000000038
:204c4000000000000000000000000000000000000000000000000000000000000000000054
:164c6000000000000000000000000000000000000000000000003e
:204c76000000000000c3020000000000000000000000000000000000000000000000000059
:204c96000000000000000000000000000000000000000000000000000000000000000000fe
:174cb6000000000000000000000000000000000000000000000000e7
:204ccd00000000000c3000000000000000000000000000000000000000000000000000008b
:204ced000000000000000000000000000000000000000000000000000000000000000000a7
:164d0d000000000000000000000000000000000000000000000090
:204d23000000000000c30200000000000000000000000000000000000000000000000000ab
:204d4300000000000000000000000000000000000000000000000000000000000000000050
:174d6300000000000000000000000000000000000000000000000039
:204d7a00000000000c300000000000000000000000000000000000000000000000000000dd
:204d9a000000000000000000000000000000000000000000000000000000000000000000f9
:164dba0000000000000000000000000000000000000000000000e3
:204dd0000000000000c30200000000000000000000000000000000000000000000000000fe
:204df0000000000000000000000000000000000000000000000000000000000000000000a3
:174e100000000000000000000000000000000000000000000000008b
:204e2700000000000c3000000000000000000000000000000000000000000000000000002f
:204e470000000000000000000000000000000000000000000000000000000000000000004b
:164e67000000000000000000000000000000000000000000000035
:204e7d000000000000c3020000000000000000000000000000000000000000000000000050
:204e9d000000000000000000000000000000000000000000000000000000000000000000f5
:174ebd000000000000000000000000000000000000000000000000de
:204ed400010000000c30000000000000000000000000000000000000000000000000000081
:204ef40000000000000000000000000000000000000000000000000000000000000000009e
:164f14000000000000000000000000000000000000000000000087
:204f2a000010000000c3020000000000000000000000000000000000000000000000000092
:204f4a00000000000000000000000000000000000000000000000000000000000000000047
:174f6a00000000000000000000000000000000000000000000000030
:204f8100000000000c300000000000000000000000000000000000000000000000000000d4
:204fa1000000000000000000000000000000000000000000000000000000000000000000f0
:164fc10000000000000000000000000000000000000000000000da
:204fd7000010000000c30200000000000000000000000000000000000000000000000000e5
:204ff70000000000000000000000000000000000000000000000000000000000000000009a
:17501700000000000000000000000000000000000000000000000082
:20502e00000000000c30000000000000000000000000000000000000000000000000000026
:20504e00000000000000000000000000000000000000000000000000000000000000000042
:16506e00000000000000000000000000000000000000000000002c
:205084000000000000c3020000000000000000000000000000000000000000000000000047
:2050a4000000000000000000000000000000000000000000000000000000000000000000ec
:1750c4000000000000000000000000000000000000000000000000d5
:2050db00000000000c30000000000000000000000000000000000000000000000000000079
:2050fb00000000000000000000000000000000000000000000000000000000000000000095
:16511b00000000000000000000000000000000000000000000007e
:205131000000000000c3020000000000000000000000000000000000000000000000000099
:2051510000000000000000000000000000000000000000000000000000000000000000003e
:17517100000000000000000000000000000000000000000000000027
:20518800000000000c300000000000000000000000000000000000000000000000000000cb
:2051a8000000000000000000000000000000000000000000000000000000000000000000e7
:1651c80000000000000000000000000000000000000000000000d1
:2051de000000000000c30200000000000000000000000000000000000000000000000000ec
:2051fe00000000000000000000000000000000000000000000000000000000000000000091
:17521e00000000000000000000000000000000000000000000000079
:20523500000000000c3000000000000000000000000000000000000000000000000000001d
:20525500000000000000000000000000000000000000000000000000000000000000000039
:165275000000000000000000000000000000000000000000000023
:20528b000000000000c302000000000000000000000000000000000000000000000000003e
:2052ab000000000000000000000000000000000000000000000000000000000000000000e3
:1752cb000000000000000000000000000000000000000000000000cc
:2052e200000000000c30000000000000000000000000000000000000000000000000000070
:2053020000000000000000000000000000000000000000000000000000000000000000008b
:165322000000000000000000000000000000000000000000000075
:205338000000000000c3020000000000000000000000000000000000000000000000000090
:20535800000000000000000000000000000000000000000000000000000000000000000035
:1753780000000000000000000000000000000000000000000000001e
:20538f00000000000c300000000000000000000000000000000000000000000000000000c2
:2053af000000000000000000000000000000000000000000000000000000000000000000de
:1653cf0000000000000000000000000000000000000000000000c8
:2053e5000000000000c30200000000000000000000000000000000000000000000000000e3
:20540500000000000000000000000000000000000000000000000000000000000000000087
:17542500000000000000000000000000000000000000000000000070
:20543c00000000000c30000000000000000000000000000000000000000000000000000014
:20545c00000000000000000000000000000000000000000000000000000000000000000030
:16547c00000000000000000000000000000000000000000000001a
:205492000000000000c3020000000000000000000000000000000000000000000000000035
:2054b2000000000000000000000000000000000000000000000000000000000000000000da
:1754d2000000000000000000000000000000000000000000000000c3
:2054e900000000000c30000000000000000000000000000000000000000000000000000067
:20550900000000000000000000000000000000000000000000000000000000000000000082
:16552900000000000000000000000000000000000000000000006c
:20553f000000000000c3020000000000000000000000000000000000000000000000000087
:20555f0000000000000000000000000000000000000000000000000000000000000000002c
:17557f00000000000000000000000000000000000000000000000015
:20559600000000000c300000000000000000000000000000000000000000000000000000b9
:2055b6000000000000000000000000000000000000000000000000000000000000000000d5
:1655d60000000000000000000000000000000000000000000000bf
:2055ec000000000000c30200000000000000000000000000000000000000000000000000da
:20560c0000000000000000000000000000000000000000000000000000000000000000007e
:17562c00000000000000000000000000000000000000000000000067
:20564300000000000c3000000000000000000000000000000000000000000000000000000b
:20566300000000000000000000000000000000000000000000000000000000000000000027
:165683000000000000000000000000000000000000000000000011
:205699000000000000c302000000000000000000000000000000000000000000000000002c
:2056b9000000000000000000000000000000000000000000000000000000000000000000d1
:1756d9000000000000000000000000000000000000000000000000ba
:2056f00000000000000000000000000000000000000000000000000000000000000000009a
:20571000000000000000000000000000000000000000000000000000000000000000000079
:02776000000027
:02776200110212
:02776400010121
:20776600000000000000000002000000000000080000000000002000000000000080000059
:20778600000000020000000000800000000000020000000000000800000000000020000037
:1677a6000000000080000000000002000000000000080000000043
:2077bc00000000000000000000100000000000004000000000000100000000000004000058
:2077dc00000000001000000000040000000000001000000000000040000000000001000028
:1777fc00000000000400000000000010000000000000400000000022
:20781300000000000000000000000000000000000000000000000000000000000000000055
:207833000080000000000000000000000000000000000000000000000000000000000000b5
:16785300000000000000000000000000000000000000000000001f
:207869000000000000000000000000000000000000000000000000000000000000000000ff
:207889000000000000000000000000000000000000000000000000000000000000000000df
:1778a9000000000000000000000000000000000000000000000000c8
:2078c0000000000000000000000000000000000000000000000000000000000000000000a8
:2078e000000000000000000000000000000000000000000000000000000000000000000088
:167900000000000000000000000000000000000000000000000071
:20791600000000000000000000000000000000000000000000000000000000000000000051
:20793600000000000000000000000000000000000000000000000000000000000000000031
:1779560000000000000000000000000000000000000000000000001a
:20796d000000000000000000000000000000000000000000000000000000000000002000da
:20798d0000800000000000000000000000000000000000000000000000000000000000005a
:1679ad0000000000000000000000000000000000000000000000c4
:2079c3000000000000000000000000000000000000000000000000000000000000000000a4
:2079e300000000000000000000000000000000000000000000000000000000000000000084
:177a030000000000000000000000000000000000000000000000006c
:207a1a0000000000000000000000000000000000000000000000000000000000000010003c
:207a3a0000000000000000000000000000000000000000000000000000000000000000002c
:167a5a000000000000000000000000000000000000000000000016
:207a70000000000000000000000000000000000000000000000000000000000000000000f6
:207a90000000000000000000000000000000000000000000000000000000000000000000d6
:177ab0000000000000000000000000000000000000000000000000bf
:207ac70000000000000000000000000000000000000000000000000000000000000000009f
:207ae70000000000000000000000000000000000000000000000000000000000000000007f
:167b07000000000000000000000000000000000000000000000068
:207b1d00000000000000000000000000000000000000000000000000000000000000000048
:207b3d00000000000000000000000000000000000000000000000000000000000000000028
:177b5d00000000000000000000000000000000000000000000000011
:207b74000000000000000000000000000000000000000000000000000000000000000000f1
:207b94000000000000000000000000000000000000000000000000000000000000000000d1
:167bb40000000000000000000000000000000000000000000000bb
:207bca0000000000000000000000000000000000000000000000000000000000000000009b
:207bea0000000000000000000000000000000000000000000000000000000000000000007b
:177c0a00000000000000000000000000000000000000000000000063
:207c2100000000000000000000000000000000000000000000000000000000000000000043
:207c4100000000000000000000000000000000000000000000000000000000000000000023
:167c6100000000000000000000000000000000000000000000000d
:207c77000000000000000000000000000000000000000000000000000000000000000000ed
:207c97000000000000000000000000000000000000000000000000000000000000000000cd
:177cb7000000000000000000000000000000000000000000000000b6
:207cce001030c0000000000000000000000000000000000000000000000000000000000096
:207cee00000000000000000000000000000000000000000000000000000000000000000076
:167d0e00000000000000000000000000000000000000000000005f
:207d240000030c000000000000000000000000000000000000000000000000000000000030
:207d440000000000000000000000000000000000000000000000000000000000000000001f
:177d6400000000000000000000000000000000000000000000000008
:207d7b001030c00000000000000000000000000000000000000000000000000000000000e8
:207d9b000000000000000000000000000000000000000000000000000000000000000000c8
:167dbb0000000000000000000000000000000000000000000000b2
:207dd10000030c000000000000000000000000000000000000000000000000000000000083
:207df100000000000000000000000000000000000000000000000000000000000000000072
:177e110000000000000000000000000000000000000000000000005a
:207e28001030c000000000000000000000000000000000000000000000000000000000003a
:207e480000000000000000000000000000000000000000000000000000000000000000001a
:167e68000000000000000000000000000000000000000000000004
:207e7e0000030c0000000000000000000000000000000000000000000000000000000000d5
:207e9e000000000000000000000000000000000000000000000000000000000000000000c4
:177ebe000000000000000000000000000000000000000000000000ad
:207ed5001030c000000000000000000000000000000000000000000000000000000000008d
:207ef50000000000000000000000000000000000000000000000000000000000000000006d
:167f15000000000000000000000000000000000000000000000056
:207f2b0000030c000000000000000000000000000000000000000000000000000000000027
:207f4b00000000000000000000000000000000000000000000000000000000000000000016
:177f6b000000000000000000000000000000000000000000000000ff
:207f82001030c00000000000000000000000000000000000000000000000000000000000df
:207fa2000000000000000000000000000000000000000000000000000000000000000000bf
:167fc20000000000000000000000000000000000000000000000a9
:207fd80000030c00000000000000000000000000000000000000000000000000000000007a
:207ff800000000000000000000000000000000000000000000000000000000000000000069
:17801800000000000000000000000000000000000000000000000051
:20802f001030c0000000000000000000000000000000000000000000000000000000000031
:20804f00000000000000000000000000000000000000000000000000000000000000000011
:16806f0000000000000000000000000000000000000000000000fb
:2080850000030c0000000000000000000000000000000000000000000000000000000000cc
:2080a5000000000000000000000000000000000000000000000000000000000000000000bb
:1780c5000000000000000000000000000000000000000000000000a4
:2080dc001030c0000000000000000000000000000000000000000000000000000000000084
:2080fc00000000000000000000000000000000000000000000000000000000000000000064
:16811c00000000000000000000000000000000000000000000004d
:2081320000030c00000000000000000000000000000000000000000000000000000000001e
:2081520000000000000000000000000000000000000000000000000000000000000000000d
:178172000000000000000000000000000000000000000000000000f6
:208189001030c00000000000000000000000000000000000000000000000000000000000d6
:2081a9000000000000000000000000000000000000000000000000000000000000000000b6
:1681c90000000000000000000000000000000000000000000000a0
:2081df0000030c000000000000000000000000000000000000000000000000000000000071
:2081ff00000000000000000000000000000000000000000000000000000000000000000060
:17821f00000000000000000000000000000000000000000000000048
:208236001030c0000000000000000000000000000000000000000000000000000000000028
:20825600000000000000000000000000000000000000000000000000000000000000000008
:1682760000000000000000000000000000000000000000000000f2
:20828c0000030c0000000000000000000000000000000000000000000000000000000000c3
:2082ac000000000000000000000000000000000000000000000000000000000000000000b2
:1782cc0000000000000000000000000000000000000000000000009b
:2082e3001030c000000000000000000000000000000000000000000000000000000000007b
:2083030000000000000000000000000000000000000000000000000000000000000000005a
:168323000000000000000000000000000000000000000000000044
:2083390000030c000000000000000000000000000000000000000000000000000000000015
:20835900000000000000000000000000000000000000000000000000000000000000000004
:178379000000000000000000000000000000000000000000000000ed
:208390001030c00000000000000000000000000000000000000000000000000000000000cd
:2083b0000000000000000000000000000000000000000000000000000000000000000000ad
:1683d0000000000000000000000000000000000000000000000097
:2083e60000030c000000000000000000000000000000000000000000000000000000000068
:20840600000000000000000000000000000000000000000000000000000000000000000056
:1784260000000000000000000000000000000000000000000000003f
:20843d001030c000000000000000000000000000000000000000000000000000000000001f
:20845d000000000000000000000000000000000000000000000000000000000000000000ff
:16847d0000000000000000000000000000000000000000000000e9
:2084930000030c0000000000000000000000000000000000000000000000000000000000ba
:2084b3000000000000000000000000000000000000000000000000000000000000000000a9
:1784d300000000000000000000000000000000000000000000000092
:2084ea001030c0000000000000000000000000000000000000000000000000000000000072
:20850a00000000000000000000000000000000000000000000000000000000000000000051
:16852a00000000000000000000000000000000000000000000003b
:2085400000030c00000000000000000000000000000000000000000000000000000000000c
:208560000000000000000000000000000000000000000000000000000000000000000000fb
:178580000000000000000000000000000000000000000000000000e4
:208597001030c00000000000000000000000000000000000000000000000000000000000c4
:2085b7000000000000000000000000000000000000000000000000000000000000000000a4
:1685d700000000000000000000000000000000000000000000008e
:2085ed0000030c00000000000000000000000000000000000000000000000000000000005f
:20860d0000000000000000000000000000000000000000000000000000000000000000004d
:17862d00000000000000000000000000000000000000000000000036
:208644001030c0000000000000000000000000000000000000000000000000000000000016
:208664000000000000000000000000000000000000000000000000000000000000000000f6
:1686840000000000000000000000000000000000000000000000e0
:20869a0000030c0000000000000000000000000000000000000000000000000000000000b1
:2086ba000000000000000000000000000000000000000000000000000000000000000000a0
:1786da00000000000000000000000000000000000000000000000089
:2086f1001030c0000000000000000000000000000000000000000000000000000000000069
:20871100000000000000000000000000000000000000000000000000000000000000000048
:168731000000000000000000000000000000000000000000000032
:2087470000030c000000000000000000000000000000000000000000000000000000000003
:208767000000000000000000000000000000000000000000000000000000000000000000f2
:178787000000000000000000000000000000000000000000000000db
:20879e001030c00000000000000000000000000000000000000000000000000000000000bb
:2087be0000000000000000000000000000000000000000000000000000000000000000009b
:1687de000000000000000000000000000000000000000000000085
:2087f40000030c000000000000000000000000000000000000000000000000000000000056
:20881400000000000000000000000000000000000000000000000000000000000000000044
:1788340000000000000000000000000000000000000000000000002d
:20884b001030c000000000000000000000000000000000000000000000000000000000000d
:20886b000000000000000000000000000000000000000000000000000000000000000000ed
:16888b0000000000000000000000000000000000000000000000d7
:2088a10000030c0000000000000000000000000000000000000000000000000000000000a8
:2088c100000000000000000000000000000000000000000000000000000000000000000097
:1788e100000000000000000000000000000000000000000000000080
:2088f8001030c0000000000000000000000000000000000000000000000000000000000060
:2089180000000000000000000000000000000000000000000000000000000000000000003f
:168938000000000000000000000000000000000000000000000029
:20894e0000030c0000000000000000000000000000000000000000000000000000000000fa
:20896e000000000000000000000000000000000000000000000000000000000000000000e9
:17898e000000000000000000000000000000000000000000000000d2
:2089a5001030c00000000000000000000000000000000000000000000000000000000000b2
:2089c500000000000000000000000000000000000000000000000000000000000000000092
:1689e500000000000000000000000000000000000000000000007c
:2089fb0000030c00000000000000000000000000000000000000000000000000000000004d
:208a1b0000000000000000000000000000000000000000000000000000000000000000003b
:178a3b00000000000000000000000000000000000000000000000024
:208a52001030c0000000000000000000000000000000000000000000000000000000000004
:208a72000000000000000000000000000000000000000000000000000000000000000000e4
:168a920000000000000000000000000000000000000000000000ce
:208aa80000030c00000000000000000000000000000000000000000000000000000000009f
:208ac80000000000000000000000000000000000000000000000000000000000000000008e
:178ae800000000000000000000000000000000000000000000000077
:208aff005430c0000000000000000000000000000000000000000000000000000000000013
:208b1f00000000000000000000000000000000000000000000000000000000000000000036
:168b3f000008000000000000000000000000000000000000000018
:208b550000030c0000000000000000000000000000000000000000000000000000000000f1
:208b75000000000000000000000000000000000000000000000000000000000000000000e0
:178b9500000080000000000000000000000000000000000000000049
:208bac001030c00000000000000000000000000000000000000000000000000000000000a9
:208bcc00000000000000000000000000000000000000000000000000000000000000000089
:168bec000000000000000000000000000000000000000000000073
:208c020000030c000000000000000000000000000000000000000000000000000000000043
:208c2200000000000000000000000000000000000000000000000000000000000000000032
:178c420000000000000000000000000000000000000000000000001b
:208c59001030c00000000000000000000000000000000000000000000000000000000000fb
:208c79000000000000000000000000000000000000000000000000000000000000000000db
:168c990000000000000000000000000000000000000000000000c5
:208caf0000030c000000000000000000000000000000000000000000000000000000000096
:208ccf00000000000000000000000000000000000000000000000000000000000000000085
:178cef0000000000000000000000000000000000000000000000006e
:208d06001030c000000000000000000000000000000000000000000000000000000000004d
:208d260000000000000000000000000000000000000000000000000000000000000000002d
:168d46000000000000000000000000000000000000000000000017
:208d5c0000030c0000000000000000000000000000000000000000000000000000000000e8
:208d7c000000000000000000000000000000000000000000000000000000000000000000d7
:178d9c000000000000000000000000000000000000000000000000c0
:208db3001030c00000000000000000000000000000000000000000000000000000000000a0
:208dd300000000000000000000000000000000000000000000000000000000000000000080
:168df300000000000000000000000000000000000000000000006a
:208e090000030c00000000000000000000000000000000000000000000000000000000003a
:208e2900000000000000000000000000000000000000000000000000000000000000000029
:178e4900000000000000000000000000000000000000000000000012
:208e60001030c00000000000000000000000000000000000000000000000000000000000f2
:208e80000000000000000000000000000000000000000000000000000000000000000000d2
:168ea00000000000000000000000000000000000000000000000bc
:208eb60000030c00000000000000000000000000000000000000000000000000000000008d
:208ed60000000000000000000000000000000000000000000000000000000000000000007c
:178ef600000000000000000000000000000000000000000000000065
:208f0d001030c0000000000000000000000000000000000000000000000000000000000044
:208f2d00000000000000000000000000000000000000000000000000000000000000000024
:168f4d00000000000000000000000000000000000000000000000e
:208f630000030c0000000000000000000000000000000000000000000000000000000000df
:208f83000000000000000000000000000000000000000000000000000000000000000000ce
:178fa3000000000000000000000000000000000000000000000000b7
:208fba001030c0000000000000000000000000000000000000000000000000000000000097
:208fda00000000000000000000000000000000000000000000000000000000000000000077
:168ffa000000000000000000000000000000000000000000000061
:2090100000030c000000000000000000000000000000000000000000000000000000000031
:20903000000000000000000000000000000000000000000000000000000000000000000020
:17905000000000000000000000000000000000000000000000000009
:209067001030c00000000000000000000000000000000000000000000000000000000000e9
:209087000000000000000000000000000000000000000000000000000000000000000000c9
:1690a70000000000000000000000000000000000000000000000b3
:2090bd0000030c000000000000000000000000000000000000000000000000000000000084
:2090dd00000000000000000000000000000000000000000000000000000000000000000073
:1790fd0000000000000000000000000000000000000000000000005c
:209114001030c000000000000000000000000000000000000000000000000000000000003b
:2091340000000000000000000000000000000000000000000000000000000000000000001b
:169154000000000000000000000000000000000000000000000005
:20916a0000030c0000000000000000000000000000000000000000000000000000000000d6
:20918a000000000000000000000000000000000000000000000000000000000000000000c5
:1791aa000000000000000000000000000000000000000000000000ae
:2091c1001030c000000000000000000000000000000000000000000000000000000000008e
:2091e10000000000000000000000000000000000000000000000000000000000000000006e
:169201000000000000000000000000000000000000000000000057
:2092170000030c000000000000000000000000000000000000000000000000000000000028
:20923700000000000000000000000000000000000000000000000000000000000000000017
:17925700000000000000000000000000000000000000000000000000
:20926e000000000000000000000000000000000000000000000000000000000000000000e0
:20928e000000000000000000000000000000000000000000000000000000000000000000c0
:209f65000020000000000000000000000000000000000000000000000000000000000000bc
:169f850000000000000000000000000000000000000000000000c6
:209f9b000000000000000000000000000000000000000000000000000000000000000000a6
:209fbb00000000000000000000000000000000000000000000000000000000000000000086
:179fdb0000000000000000000000000000000000000000000000006f
:20a65d000000000000000200000000000000000000000000000000000000000000000000db
:20a67d000000000000000000000000000000000000000000000000000000000000000000bd
:17a69d000000000000000000000000000000000000000000000000a6
:20a6b400000000000000000000000000000000000000000000000000000000000000000086
:20a6d400000000000000000000000000000000000000000000000000000000000000000066
:16a6f4000000000000000000000000000000000000000000000050
:20a70a0000000000000000000000000000000000000000000000000000000000000000002f
:20a72a0000000000000000000000000000000000000000000000000000000000000000000f
:17a74a000000000000000000000000000000000000000000000000f8
:20a761000000000000000000000000000000000000000000000000000000000000000000d8
:20a781000000000000000000000000000000000000000000000000000000000000000000b8
:16a7a10000000000000000000000000000000000000000000002a0
:20a7b700000000000000000000000000000000000000000000000000000000000000000082
:20a7d700000000000000000000000000000000000000000000000000000000000000000062
:17a7f70000000000000000000000000000000000000000000000202b
:20a80e0000000000000000000000000000000000000000000000000000000000000000002a
:20a82e0000000000000000000000000000000000000000000000000000000000000000000a
:16a84e0000000000000000000000000000000000000000000000f4
:20a864000000000000000000000000000000000000000000000000000000000000000000d4
:02b2de0000006e
:02b2e000110358
:02b2e200010168
:20b2e4000000000000000000020000000000000800000000000020000000000000800000a0
:20b3040000000002000000000080000000000002000000000000080000000000002000007d
:16b324000000000080000000000002000000000000080000000089
:20b33a0000000000000000000010000000000000400000000000010000000000000400009e
:20b35a0000000000100000000004000000000000100000000000004000000000000100006e
:17b37a00000000000400000000000010000000000000400000000068
:20b3910000000000000000000000000000000000000000000000000000000000000000009c
:20b3b1000000000000000000000000000080000000000000000000000000000000000000fc
:16b3d1000000000000000000000000000000000000000000000066
:20b3e700000000000000000000000000000000000000000000000000000000000000000046
:20b40700000000000000000000000000000000000000000000000000000000000000000025
:17b4270000000000000000000000000000000000000000000000000e
:20b43e000000000000000000000000000000000000000000000000000000000000000000ee
:20b45e000000000000000000000000000000000000000000000000000000000000000000ce
:16b47e0000000000000000000000000000000000000000000000b8
:20b49400000000000000000000000000000000000000000000000000000000000000000098
:20b4b400000000000000000000000000000000000000000000000000000000000000000078
:17b4d400000000000000000000000000000000000000000000000061
:20b4eb00000000000000000000000000000000000000000000000000000000000000000041
:20b50b00000000000000000000002000000000000000000000000000000000000000000000
:16b52b00000000000000000000000000000000000000000000000a
:20b541000000000000000000000000000000000000000000000000000000000000000000ea
:20b561000000000000000000000000000004000000000000000000000000000000000000c6
:17b581000000000000000000000000000000000000000000000000b3
:20b59800000000000000000000000000000000000000000000000000000000000000000093
:20b5b8000000000000000000000030000000000000800000000000000000000000000000c3
:16b5d800000000000000000000000000000000000000000000005d
:20b5ee0000000000000000000000000000000000000000000000000000000000000000003d
:20b60e0000000000000000000000000000000000000000000000000000000000000000001c
:17b62e00000000000000000000000000000000000000000000000005
:20b645000000000000000000000000000000000000000000000000000000000000000000e5
:20b665000000000000000000000000000000000000000000000000000000000000000000c5
:16b6850000000000000000000000000000000000000000000000af
:20b69b0000000000000000000000000000000000000000000000000000000000000000008f
:20b6bb0000000000000000000000000000000000000000000000000000000000000000006f
:17b6db00000000000000000000000000000000000000000000000058
:20b6f200000000000000000000000000000000000000000000000000000000000000000038
:20b71200000000000000000000000000000000000000000000000000000000000000000017
:16b732000000000000000000000000000000000000000000000001
:20b748000000000000000000000000000000000000000000000000000000000000000000e1
:20b76800000000000000000000000100000800000004000020000000000000000000000094
:17b788000000000000000000000000000000000000000000000000aa
:20b79f0000000000000000000000000000000000000000000000000000000000000000008a
:20b7bf000000000000000000000020000000000000800000000000000000000000000000ca
:16b7df000000000000000000000000000000000000000000000054
:20b7f500000000000000000000000000000000000000000000000000000000000000000034
:20b815000000000000000000000000000000000000000000000000000000000000002000f3
:17b8350000000000008000000000000000000000000000000000007c
:20b84c000030c00000000000000000000000000000000000000000000000000000000000ec
:20b86c000000000000000000000000000000000000000000000000000000000000000000bc
:16b88c0000000000000000000000000000000000000000000000a6
:20b8a20001030c000000000000000000000000000000000000000000000000000000000076
:20b8c200000000000000000000000000000000000000000000000000000000000000000066
:17b8e20000000000000000000000000000000000000000000000004f
:20b8f9000030c000000000000000000000000000000000000000000000000000000000003f
:20b9190000000000000000000000000000000000000000000000000000000000000000000e
:16b9390000000000000000000000000000000000000000000000f8
:20b94f0001030c0000000000000000000000000000000000000000000000000000000000c8
:20b96f000000000000000000000000000000000000000000000000000000000000000000b8
:17b98f000000000000000000000000000000000000000000000000a1
:20b9a6000030c0000000000000000000000000000000000000000000000000000000000091
:20b9c600000000000000000000000000000000000000000000000000000000000000000061
:16b9e6000000000000000000000000000000000000000000000249
:20b9fc0001030c00000000000000000000000000000000000000000000000000000000001b
:20ba1c0000000000000000000000000000000000000000000000000000000000000000000a
:17ba3c000000000000000000000000000000000000000000000000f3
:20ba53000030c00000000000000000000000000000000000000000000000000000000000e3
:20ba73000000000000000000000000000000000000000000000000000000000000000000b3
:16ba9300000000000000000000000000000000000000000000009d
:20baa90001030c00000000000000000000000000000000000000000000000000000000006d
:20bac90000000000000000000000000000000000000000000000000000000000000000005d
:17bae900000000000000000000000000000000000000000000000046
:20bb00000030c0000000000000000000000000000000000000000000000000000000000035
:20bb2000000000000000000000000000000000000000000000000000000000000000000005
:16bb400000000000000000000000000000000000000000000000ef
:20bb560001030c0000000000000000000000000000000000000000000000000000000000bf
:20bb76000000000000000000000000000000000000000000000000000000000000000000af
:17bb9600000000000000000000000000000000000000000000000098
:20bbad000030c0000000000000000000000000000000000000000000000000000000000088
:20bbcd00000000000000000000000000000000000000000000000000000000000000000058
:16bbed000000000000000000000000000000000000000000000042
:20bc030001030c000000000000000000000000000000000000000000000000000000000011
:20bc2300000000000000000000000000000000000000000000000000000000000000000001
:17bc43000000000000000000000000000000000000000000000000ea
:20bc5a000030c00000000000000000000000000000000000000000000000000000000000da
:20bc7a000000000000000000000000000000000000000000000000000000000000000000aa
:16bc9a000000000000000000000000000000000000000000000094
:20bcb00001030c000000000000000000000000000000000000000000000000000000000064
:20bcd000000000000000000000000000000000000000000000000000000000000000000054
:17bcf00000000000000000000000000000000000000000000000003d
:20bd07000030c000000000000000000000000000000000000000000000000000000000002c
:20bd27000000000000000000000000000000000000000000000000000000000000000000fc
:16bd470000000000000000000000000000000000000000000000e6
:20bd5d0001030c0000000000000000000000000000000000000000000000000000000000b6
:20bd7d000000000000000000000000000000000000000000000000000000000000000000a6
:17bd9d0000000000000000000000000000000000000000000000008f
:20bdb4000030c000000000000000000000000000000000000000000000000000000000007f
:20bdd40000000000000000000000000000000000000000000000000000000000000000004f
:16bdf4000000000000000000000000000000000000000000000039
:20be0a0001030c000000000000000000000000000000000000000000000000000000000008
:20be2a000000000000000000000000000000000000000000000000000000000000000000f8
:17be4a000000000000000000000000000000000000000000000000e1
:20be61000030c00000000000000000000000000000000000000000000000000000000000d1
:20be81000000000000000000000000000000000000000000000000000000000000000000a1
:16bea100000000000000000000000000000000000000000000008b
:20beb70001030d40000000000000000000000000000000000000000000000000000000001a
:20bed70000000000000000000000000000000000000000000000000000000000000000004b
:17bef700000000000000000000000000000000000000000000000034
:20bf0e000030c0000000000000000000000000000000000000000000000000000000000023
:20bf2e000000000000000000000000000000000000000000000000000000000000000000f3
:16bf4e0000000000000000000000000000000000000000000000dd
:20bf640001030c0000000000000000000000000000000000000000000000000000000000ad
:20bf840000000000000000000000000000000000000000000000000000000000000000009d
:17bfa400000000000000000000000000000000000000000000000086
:20bfbb000030c0000000000000000000000000000000000000000000000000000000000076
:20bfdb00000000000000000000000000000000000000000000000000000000000000000046
:16bffb000000000000000000000000000000000000000000000030
:20c0110001030c0000000000000000000000000000000000000000000000000000000000ff
:20c031000000000000000000000000000000000000000000000000000000000000000000ef
:17c051000000000000000000000000000000000000000000000000d8
:20c068000030c00000000000000000000000000000000000000000000000000000000000c8
:20c08800000000000000000000000000000000000000000000000000000000000000000098
:16c0a8000000000000000000000000000000000000000000000082
:20c0be0001030c000000000000000000000000000000000000000000000000000000000052
:20c0de00000000000000000000000000000000000000000000000000000000000000000042
:17c0fe0000000000000000000000000000000000000000000000002b
:20c115000030c0000c0000000000000000000000000000000000000000000000000000000e
:20c135000020000000000000000000000000000000000000000000000000000000000000ca
:16c1550000000000000000000000000000000000000000000000d4
:20c16b0001030c000000200000000000000000000000000000000000000000000000000084
:20c18b00000200000000000000000000000000000000000000000000000000000000000092
:17c1ab0000000000000000000000000000000000000000000000007d
:20c1c2000030c000000000000000000000000000000000000000000000000000000000006d
:20c1e20000000000000000000000000000000000000000000000000000000000000000003d
:16c202000000000000000000000000000000000000000000000026
:20c2180001030c0000000000000000000000000000000000000000000000000000000000f6
:20c238000000000000000000000000000002000000000000000000000000000000000000e4
:17c258000000000000000000000000000000000000000000000000cf
:20c26f000030c00000000000000000000000000000000000000000000000000000000000bf
:20c28f0000000000000000000000000000000000000000000000000000000000000000008f
:16c2af000000000000000000000000000000000000000000000079
:20c2c50001030c000000000000000000000000000000000000000000000000000000000049
:20c2e500000000000000000000000000000000000000000000000000000000000000000039
:17c30500000000000000000000000000000000000000000000000021
:20c31c000030c0000000000000000000000000000000000000000000000000000000000011
:20c33c000000000000000000000000000000000000000000000000000000000000000000e1
:16c35c0000000000000000000000000000000000000000000000cb
:20c3720001030c00000000000000000000000000000000000000000000000000000000009b
:20c3920000000000000000000000000000000000000000000000000000000000000000008b
:17c3b200000000000000000000000000000000000000000000000074
:20c3c9000030c0000000000000000000000000000000000000000000000000000000000064
:20c3e900000000000000000000000000000000000000000000000000000000000000000034
:16c40900000000000000000000000000000000000000000000001d
:20c41f0001030c0000000000000000000000000000000000000000000000000000000000ed
:20c43f000000000000000000000000000000000000000000000000000000000000000000dd
:17c45f000000000000000000000000000000000000000000000000c6
:20c476000030c00000000000000000000000000000000000000000000000000000000000b6
:20c49600000000000000000000000000000000000000000000000000000000000000000086
:16c4b6000000000000000000000000000000000000000000000070
:20c4cc0001030c000000000000000000000000000000000000000000000000000000000040
